{
  "_format": "hh-sol-artifact-1",
  "contractName": "CourseMarketplace",
  "sourceName": "contracts/CourseMarketplace.sol",
  "abi": [
    {
      "inputs": [
        {
          "internalType": "address",
          "name": "_eduToken",
          "type": "address"
        }
      ],
      "stateMutability": "nonpayable",
      "type": "constructor"
    },
    {
      "inputs": [],
      "name": "EnforcedPause",
      "type": "error"
    },
    {
      "inputs": [],
      "name": "ExpectedPause",
      "type": "error"
    },
    {
      "inputs": [
        {
          "internalType": "address",
          "name": "owner",
          "type": "address"
        }
      ],
      "name": "OwnableInvalidOwner",
      "type": "error"
    },
    {
      "inputs": [
        {
          "internalType": "address",
          "name": "account",
          "type": "address"
        }
      ],
      "name": "OwnableUnauthorizedAccount",
      "type": "error"
    },
    {
      "inputs": [],
      "name": "ReentrancyGuardReentrantCall",
      "type": "error"
    },
    {
      "anonymous": false,
      "inputs": [
        {
          "indexed": true,
          "internalType": "uint256",
          "name": "courseId",
          "type": "uint256"
        },
        {
          "indexed": false,
          "internalType": "string",
          "name": "name",
          "type": "string"
        },
        {
          "indexed": false,
          "internalType": "uint256",
          "name": "price",
          "type": "uint256"
        },
        {
          "indexed": false,
          "internalType": "uint256",
          "name": "spots",
          "type": "uint256"
        }
      ],
      "name": "CourseCreated",
      "type": "event"
    },
    {
      "anonymous": false,
      "inputs": [
        {
          "indexed": true,
          "internalType": "uint256",
          "name": "courseId",
          "type": "uint256"
        },
        {
          "indexed": false,
          "internalType": "uint256",
          "name": "price",
          "type": "uint256"
        },
        {
          "indexed": false,
          "internalType": "bool",
          "name": "active",
          "type": "bool"
        }
      ],
      "name": "CourseUpdated",
      "type": "event"
    },
    {
      "anonymous": false,
      "inputs": [
        {
          "indexed": true,
          "internalType": "address",
          "name": "previousOwner",
          "type": "address"
        },
        {
          "indexed": true,
          "internalType": "address",
          "name": "newOwner",
          "type": "address"
        }
      ],
      "name": "OwnershipTransferred",
      "type": "event"
    },
    {
      "anonymous": false,
      "inputs": [
        {
          "indexed": false,
          "internalType": "address",
          "name": "account",
          "type": "address"
        }
      ],
      "name": "Paused",
      "type": "event"
    },
    {
      "anonymous": false,
      "inputs": [
        {
          "indexed": true,
          "internalType": "address",
          "name": "to",
          "type": "address"
        },
        {
          "indexed": false,
          "internalType": "uint256",
          "name": "amount",
          "type": "uint256"
        }
      ],
      "name": "RevenueWithdrawn",
      "type": "event"
    },
    {
      "anonymous": false,
      "inputs": [
        {
          "indexed": true,
          "internalType": "uint256",
          "name": "courseId",
          "type": "uint256"
        },
        {
          "indexed": true,
          "internalType": "address",
          "name": "student",
          "type": "address"
        },
        {
          "indexed": false,
          "internalType": "uint256",
          "name": "price",
          "type": "uint256"
        }
      ],
      "name": "StudentEnrolled",
      "type": "event"
    },
    {
      "anonymous": false,
      "inputs": [
        {
          "indexed": false,
          "internalType": "address",
          "name": "account",
          "type": "address"
        }
      ],
      "name": "Unpaused",
      "type": "event"
    },
    {
      "inputs": [
        {
          "internalType": "uint256",
          "name": "",
          "type": "uint256"
        }
      ],
      "name": "courses",
      "outputs": [
        {
          "internalType": "uint256",
          "name": "id",
          "type": "uint256"
        },
        {
          "internalType": "string",
          "name": "name",
          "type": "string"
        },
        {
          "internalType": "uint256",
          "name": "price",
          "type": "uint256"
        },
        {
          "internalType": "uint256",
          "name": "spots",
          "type": "uint256"
        },
        {
          "internalType": "uint256",
          "name": "enrolled",
          "type": "uint256"
        },
        {
          "internalType": "bool",
          "name": "active",
          "type": "bool"
        }
      ],
      "stateMutability": "view",
      "type": "function"
    },
    {
      "inputs": [
        {
          "internalType": "string",
          "name": "name",
          "type": "string"
        },
        {
          "internalType": "uint256",
          "name": "price",
          "type": "uint256"
        },
        {
          "internalType": "uint256",
          "name": "spots",
          "type": "uint256"
        }
      ],
      "name": "createCourse",
      "outputs": [],
      "stateMutability": "nonpayable",
      "type": "function"
    },
    {
      "inputs": [],
      "name": "eduToken",
      "outputs": [
        {
          "internalType": "contract IERC20",
          "name": "",
          "type": "address"
        }
      ],
      "stateMutability": "view",
      "type": "function"
    },
    {
      "inputs": [
        {
          "internalType": "uint256",
          "name": "courseId",
          "type": "uint256"
        }
      ],
      "name": "enroll",
      "outputs": [],
      "stateMutability": "nonpayable",
      "type": "function"
    },
    {
      "inputs": [
        {
          "internalType": "uint256",
          "name": "",
          "type": "uint256"
        },
        {
          "internalType": "address",
          "name": "",
          "type": "address"
        }
      ],
      "name": "enrollments",
      "outputs": [
        {
          "internalType": "bool",
          "name": "",
          "type": "bool"
        }
      ],
      "stateMutability": "view",
      "type": "function"
    },
    {
      "inputs": [
        {
          "internalType": "uint256",
          "name": "courseId",
          "type": "uint256"
        }
      ],
      "name": "getCourse",
      "outputs": [
        {
          "components": [
            {
              "internalType": "uint256",
              "name": "id",
              "type": "uint256"
            },
            {
              "internalType": "string",
              "name": "name",
              "type": "string"
            },
            {
              "internalType": "uint256",
              "name": "price",
              "type": "uint256"
            },
            {
              "internalType": "uint256",
              "name": "spots",
              "type": "uint256"
            },
            {
              "internalType": "uint256",
              "name": "enrolled",
              "type": "uint256"
            },
            {
              "internalType": "bool",
              "name": "active",
              "type": "bool"
            }
          ],
          "internalType": "struct CourseMarketplace.Course",
          "name": "",
          "type": "tuple"
        }
      ],
      "stateMutability": "view",
      "type": "function"
    },
    {
      "inputs": [],
      "name": "getCourseCount",
      "outputs": [
        {
          "internalType": "uint256",
          "name": "",
          "type": "uint256"
        }
      ],
      "stateMutability": "view",
      "type": "function"
    },
    {
      "inputs": [
        {
          "internalType": "uint256",
          "name": "courseId",
          "type": "uint256"
        },
        {
          "internalType": "address",
          "name": "student",
          "type": "address"
        }
      ],
      "name": "isEnrolled",
      "outputs": [
        {
          "internalType": "bool",
          "name": "",
          "type": "bool"
        }
      ],
      "stateMutability": "view",
      "type": "function"
    },
    {
      "inputs": [],
      "name": "nextCourseId",
      "outputs": [
        {
          "internalType": "uint256",
          "name": "",
          "type": "uint256"
        }
      ],
      "stateMutability": "view",
      "type": "function"
    },
    {
      "inputs": [],
      "name": "owner",
      "outputs": [
        {
          "internalType": "address",
          "name": "",
          "type": "address"
        }
      ],
      "stateMutability": "view",
      "type": "function"
    },
    {
      "inputs": [],
      "name": "pause",
      "outputs": [],
      "stateMutability": "nonpayable",
      "type": "function"
    },
    {
      "inputs": [],
      "name": "paused",
      "outputs": [
        {
          "internalType": "bool",
          "name": "",
          "type": "bool"
        }
      ],
      "stateMutability": "view",
      "type": "function"
    },
    {
      "inputs": [],
      "name": "renounceOwnership",
      "outputs": [],
      "stateMutability": "nonpayable",
      "type": "function"
    },
    {
      "inputs": [],
      "name": "totalRevenue",
      "outputs": [
        {
          "internalType": "uint256",
          "name": "",
          "type": "uint256"
        }
      ],
      "stateMutability": "view",
      "type": "function"
    },
    {
      "inputs": [
        {
          "internalType": "address",
          "name": "newOwner",
          "type": "address"
        }
      ],
      "name": "transferOwnership",
      "outputs": [],
      "stateMutability": "nonpayable",
      "type": "function"
    },
    {
      "inputs": [],
      "name": "unpause",
      "outputs": [],
      "stateMutability": "nonpayable",
      "type": "function"
    },
    {
      "inputs": [
        {
          "internalType": "uint256",
          "name": "courseId",
          "type": "uint256"
        },
        {
          "internalType": "uint256",
          "name": "price",
          "type": "uint256"
        },
        {
          "internalType": "bool",
          "name": "active",
          "type": "bool"
        }
      ],
      "name": "updateCourse",
      "outputs": [],
      "stateMutability": "nonpayable",
      "type": "function"
    },
    {
      "inputs": [
        {
          "internalType": "address",
          "name": "to",
          "type": "address"
        }
      ],
      "name": "withdrawRevenue",
      "outputs": [],
      "stateMutability": "nonpayable",
      "type": "function"
    }
  ],
  "bytecode": "0x608060405234801561001057600080fd5b506040516113f33803806113f383398101604081905261002f91610140565b338061005657604051631e4fbdf760e01b8152600060048201526024015b60405180910390fd5b61005f816100f0565b50600180556001600160a01b0381166100c55760405162461bcd60e51b815260206004820152602260248201527f4d61726b6574706c6163653a20696e76616c696420746f6b656e206164647265604482015261737360f01b606482015260840161004d565b600280546001600160a01b0390921661010002610100600160a81b0319909216919091179055610170565b600080546001600160a01b038381166001600160a01b0319831681178455604051919092169283917f8be0079c531659141344cd1fd0a4f28419497f9722a3daafe3b4186f6b6457e09190a35050565b60006020828403121561015257600080fd5b81516001600160a01b038116811461016957600080fd5b9392505050565b6112748061017f6000396000f3fe608060405234801561001057600080fd5b50600436106101165760003560e01c80638da5cb5b116100a2578063bf2d9e0b11610071578063bf2d9e0b14610233578063c97683151461023c578063dfb804031461024f578063f2fde38b1461027d578063f57d585b1461029057600080fd5b80638da5cb5b146101e257806396cfda06146101f357806396f979d2146101fb578063ae0ec5e41461022057600080fd5b80635e420f4c116100e95780635e420f4c14610178578063715018a61461018b5780637d83daf2146101935780638456cb59146101aa5780638d878889146101b257600080fd5b806308ed65c81461011b5780630b91e28d146101305780633f4ba83a146101595780635c975abb14610161575b600080fd5b61012e610129366004610dc8565b6102a3565b005b61014361013e366004610e01565b61033b565b6040516101509190610e60565b60405180910390f35b61012e610485565b60025460ff165b6040519015158152602001610150565b61012e610186366004610ed8565b610497565b61012e610694565b61019c60035481565b604051908152602001610150565b61012e6106a6565b6002546101ca9061010090046001600160a01b031681565b6040516001600160a01b039091168152602001610150565b6000546001600160a01b03166101ca565b60035461019c565b61020e610209366004610e01565b6106b6565b60405161015096959493929190610efa565b61012e61022e366004610f3a565b610777565b61019c60065481565b61016861024a366004610fb9565b6108f8565b61016861025d366004610fb9565b600560209081526000928352604080842090915290825290205460ff1681565b61012e61028b366004610ed8565b610925565b61012e61029e366004610e01565b610960565b6102ab610c3d565b60035483106102d55760405162461bcd60e51b81526004016102cc90610fe5565b60405180910390fd5b60008381526004602090815260409182902060028101859055600501805460ff191684151590811790915582518581529182015284917f5120680c86668cac898dab69a03b0ee7262d0d93799edb4e0c9ca52e001e4368910160405180910390a2505050565b6103766040518060c0016040528060008152602001606081526020016000815260200160008152602001600081526020016000151581525090565b60035482106103975760405162461bcd60e51b81526004016102cc90610fe5565b600460008381526020019081526020016000206040518060c0016040529081600082015481526020016001820180546103cf90611027565b80601f01602080910402602001604051908101604052809291908181526020018280546103fb90611027565b80156104485780601f1061041d57610100808354040283529160200191610448565b820191906000526020600020905b81548152906001019060200180831161042b57829003601f168201915b505050918352505060028201546020820152600382015460408201526004820154606082015260059091015460ff16151560809091015292915050565b61048d610c3d565b610495610c6a565b565b61049f610c3d565b6104a7610cbc565b6002546040516370a0823160e01b815230600482015260009161010090046001600160a01b0316906370a0823190602401602060405180830381865afa1580156104f5573d6000803e3d6000fd5b505050506040513d601f19601f820116820180604052508101906105199190611061565b9050600081116105775760405162461bcd60e51b815260206004820152602360248201527f4d61726b6574706c6163653a206e6f20726576656e756520746f20776974686460448201526272617760e81b60648201526084016102cc565b60025460405163a9059cbb60e01b81526001600160a01b038481166004830152602482018490526000926101009004169063a9059cbb906044016020604051808303816000875af11580156105d0573d6000803e3d6000fd5b505050506040513d601f19601f820116820180604052508101906105f4919061107a565b9050806106435760405162461bcd60e51b815260206004820152601e60248201527f4d61726b6574706c6163653a207769746864726177616c206661696c6564000060448201526064016102cc565b826001600160a01b03167f86a5cc8fe9af9ae68fb50f62885307a7755a30cbd290131644377f0bd94a71818360405161067e91815260200190565b60405180910390a2505061069160018055565b50565b61069c610c3d565b6104956000610ce6565b6106ae610c3d565b610495610d36565b600460205260009081526040902080546001820180549192916106d890611027565b80601f016020809104026020016040519081016040528092919081815260200182805461070490611027565b80156107515780601f1061072657610100808354040283529160200191610751565b820191906000526020600020905b81548152906001019060200180831161073457829003601f168201915b505050506002830154600384015460048501546005909501549394919390925060ff1686565b61077f610c3d565b610787610d73565b600082116107d75760405162461bcd60e51b815260206004820152601e60248201527f4d61726b6574706c6163653a207072696365206d757374206265203e2030000060448201526064016102cc565b60038054600091826107e8836110ad565b9190505590506040518060c0016040528082815260200186868080601f01602080910402602001604051908101604052809392919081815260200183838082843760009201829052509385525050506020808301879052604080840187905260608401839052600160809094018490528583526004825290912083518155908301519091820190610879908261112b565b506040828101516002830155606083015160038301556080830151600483015560a0909201516005909101805460ff19169115159190911790555181907f62a03295cf3254097619e4c525c459f4c5385f131ff770541e79b7e63ac9d3a1906108e99088908890889088906111eb565b60405180910390a25050505050565b60008281526005602090815260408083206001600160a01b038516845290915290205460ff165b92915050565b61092d610c3d565b6001600160a01b03811661095757604051631e4fbdf760e01b8152600060048201526024016102cc565b61069181610ce6565b610968610d73565b610970610cbc565b6000818152600460205260409020600354821061099f5760405162461bcd60e51b81526004016102cc90610fe5565b600581015460ff166109f35760405162461bcd60e51b815260206004820152601e60248201527f4d61726b6574706c6163653a20636f75727365206e6f7420616374697665000060448201526064016102cc565b600082815260056020908152604080832033845290915290205460ff1615610a5d5760405162461bcd60e51b815260206004820152601d60248201527f4d61726b6574706c6163653a20616c726561647920656e726f6c6c656400000060448201526064016102cc565b60038101541580610a75575080600301548160040154105b610ac15760405162461bcd60e51b815260206004820152601860248201527f4d61726b6574706c6163653a20636f757273652066756c6c000000000000000060448201526064016102cc565b60028054908201546040516323b872dd60e01b8152336004820152306024820152604481019190915260009161010090046001600160a01b0316906323b872dd906064016020604051808303816000875af1158015610b24573d6000803e3d6000fd5b505050506040513d601f19601f82011682018060405250810190610b48919061107a565b905080610ba25760405162461bcd60e51b815260206004820152602260248201527f4d61726b6574706c6163653a20746f6b656e207472616e73666572206661696c604482015261195960f21b60648201526084016102cc565b60008381526005602090815260408083203384529091528120805460ff1916600117905560048301805491610bd6836110ad565b9190505550816002015460066000828254610bf1919061122b565b90915550506002820154604051908152339084907fa996df98e7756ee3603d273d5cb24dc656c048bf8eb98426146a0b8c05bdd2339060200160405180910390a3505061069160018055565b6000546001600160a01b031633146104955760405163118cdaa760e01b81523360048201526024016102cc565b610c72610d97565b6002805460ff191690557f5db9ee0a495bf2e6ff9c91a7834c1ba4fdd244a5e8aa4e537bd38aeae4b073aa335b6040516001600160a01b03909116815260200160405180910390a1565b600260015403610cdf57604051633ee5aeb560e01b815260040160405180910390fd5b6002600155565b600080546001600160a01b038381166001600160a01b0319831681178455604051919092169283917f8be0079c531659141344cd1fd0a4f28419497f9722a3daafe3b4186f6b6457e09190a35050565b610d3e610d73565b6002805460ff191660011790557f62e78cea01bee320cd4e420270b5ea74000d11b0c9f74754ebdbfc544b05a258610c9f3390565b60025460ff16156104955760405163d93c066560e01b815260040160405180910390fd5b60025460ff1661049557604051638dfc202b60e01b815260040160405180910390fd5b801515811461069157600080fd5b600080600060608486031215610ddd57600080fd5b83359250602084013591506040840135610df681610dba565b809150509250925092565b600060208284031215610e1357600080fd5b5035919050565b6000815180845260005b81811015610e4057602081850181015186830182015201610e24565b506000602082860101526020601f19601f83011685010191505092915050565b60208152815160208201526000602083015160c06040840152610e8660e0840182610e1a565b90506040840151606084015260608401516080840152608084015160a084015260a0840151151560c08401528091505092915050565b80356001600160a01b0381168114610ed357600080fd5b919050565b600060208284031215610eea57600080fd5b610ef382610ebc565b9392505050565b86815260c060208201526000610f1360c0830188610e1a565b905085604083015284606083015283608083015282151560a0830152979650505050505050565b60008060008060608587031215610f5057600080fd5b843567ffffffffffffffff80821115610f6857600080fd5b818701915087601f830112610f7c57600080fd5b813581811115610f8b57600080fd5b886020828501011115610f9d57600080fd5b6020928301999098509187013596604001359550909350505050565b60008060408385031215610fcc57600080fd5b82359150610fdc60208401610ebc565b90509250929050565b60208082526022908201527f4d61726b6574706c6163653a20636f7572736520646f6573206e6f74206578696040820152611cdd60f21b606082015260800190565b600181811c9082168061103b57607f821691505b60208210810361105b57634e487b7160e01b600052602260045260246000fd5b50919050565b60006020828403121561107357600080fd5b5051919050565b60006020828403121561108c57600080fd5b8151610ef381610dba565b634e487b7160e01b600052601160045260246000fd5b6000600182016110bf576110bf611097565b5060010190565b634e487b7160e01b600052604160045260246000fd5b601f82111561112657600081815260208120601f850160051c810160208610156111035750805b601f850160051c820191505b818110156111225782815560010161110f565b5050505b505050565b815167ffffffffffffffff811115611145576111456110c6565b611159816111538454611027565b846110dc565b602080601f83116001811461118e57600084156111765750858301515b600019600386901b1c1916600185901b178555611122565b600085815260208120601f198616915b828110156111bd5788860151825594840194600190910190840161119e565b50858210156111db5787850151600019600388901b60f8161c191681555b5050505050600190811b01905550565b606081528360608201528385608083013760006080858301015260006080601f19601f870116830101905083602083015282604083015295945050505050565b8082018082111561091f5761091f61109756fea26469706673582212209a4252d5bde326b72815190ef2ebe9226a56475e9fc081e1d61b52cfbc70fe4664736f6c63430008140033",
  "linkReferences": {},
  "deployedLinkReferences": {}
}