{
  "_format": "hh-sol-artifact-1",
  "contractName": "EDUToken",
  "sourceName": "contracts/EDUToken.sol",
  "abi": [
    {
      "inputs": [],
      "stateMutability": "nonpayable",
      "type": "constructor"
    },
    {
      "inputs": [
        {
          "internalType": "uint256",
          "name": "increasedSupply",
          "type": "uint256"
        },
        {
          "internalType": "uint256",
          "name": "cap",
          "type": "uint256"
        }
      ],
      "name": "ERC20ExceededCap",
      "type": "error"
    },
    {
      "inputs": [
        {
          "internalType": "address",
          "name": "spender",
          "type": "address"
        },
        {
          "internalType": "uint256",
          "name": "allowance",
          "type": "uint256"
        },
        {
          "internalType": "uint256",
          "name": "needed",
          "type": "uint256"
        }
      ],
      "name": "ERC20InsufficientAllowance",
      "type": "error"
    },
    {
      "inputs": [
        {
          "internalType": "address",
          "name": "sender",
          "type": "address"
        },
        {
          "internalType": "uint256",
          "name": "balance",
          "type": "uint256"
        },
        {
          "internalType": "uint256",
          "name": "needed",
          "type": "uint256"
        }
      ],
      "name": "ERC20InsufficientBalance",
      "type": "error"
    },
    {
      "inputs": [
        {
          "internalType": "address",
          "name": "approver",
          "type": "address"
        }
      ],
      "name": "ERC20InvalidApprover",
      "type": "error"
    },
    {
      "inputs": [
        {
          "internalType": "uint256",
          "name": "cap",
          "type": "uint256"
        }
      ],
      "name": "ERC20InvalidCap",
      "type": "error"
    },
    {
      "inputs": [
        {
          "internalType": "address",
          "name": "receiver",
          "type": "address"
        }
      ],
      "name": "ERC20InvalidReceiver",
      "type": "error"
    },
    {
      "inputs": [
        {
          "internalType": "address",
          "name": "sender",
          "type": "address"
        }
      ],
      "name": "ERC20InvalidSender",
      "type": "error"
    },
    {
      "inputs": [
        {
          "internalType": "address",
          "name": "spender",
          "type": "address"
        }
      ],
      "name": "ERC20InvalidSpender",
      "type": "error"
    },
    {
      "inputs": [],
      "name": "EnforcedPause",
      "type": "error"
    },
    {
      "inputs": [],
      "name": "ExpectedPause",
      "type": "error"
    },
    {
      "inputs": [
        {
          "internalType": "address",
          "name": "owner",
          "type": "address"
        }
      ],
      "name": "OwnableInvalidOwner",
      "type": "error"
    },
    {
      "inputs": [
        {
          "internalType": "address",
          "name": "account",
          "type": "address"
        }
      ],
      "name": "OwnableUnauthorizedAccount",
      "type": "error"
    },
    {
      "inputs": [],
      "name": "ReentrancyGuardReentrantCall",
      "type": "error"
    },
    {
      "anonymous": false,
      "inputs": [
        {
          "indexed": true,
          "internalType": "address",
          "name": "owner",
          "type": "address"
        },
        {
          "indexed": true,
          "internalType": "address",
          "name": "spender",
          "type": "address"
        },
        {
          "indexed": false,
          "internalType": "uint256",
          "name": "value",
          "type": "uint256"
        }
      ],
      "name": "Approval",
      "type": "event"
    },
    {
      "anonymous": false,
      "inputs": [
        {
          "indexed": true,
          "internalType": "address",
          "name": "previousOwner",
          "type": "address"
        },
        {
          "indexed": true,
          "internalType": "address",
          "name": "newOwner",
          "type": "address"
        }
      ],
      "name": "OwnershipTransferred",
      "type": "event"
    },
    {
      "anonymous": false,
      "inputs": [
        {
          "indexed": false,
          "internalType": "address",
          "name": "account",
          "type": "address"
        }
      ],
      "name": "Paused",
      "type": "event"
    },
    {
      "anonymous": false,
      "inputs": [
        {
          "indexed": true,
          "internalType": "address",
          "name": "admin",
          "type": "address"
        },
        {
          "indexed": true,
          "internalType": "address",
          "name": "student",
          "type": "address"
        },
        {
          "indexed": false,
          "internalType": "uint256",
          "name": "amount",
          "type": "uint256"
        },
        {
          "indexed": false,
          "internalType": "string",
          "name": "reason",
          "type": "string"
        }
      ],
      "name": "RewardSent",
      "type": "event"
    },
    {
      "anonymous": false,
      "inputs": [
        {
          "indexed": true,
          "internalType": "address",
          "name": "from",
          "type": "address"
        },
        {
          "indexed": false,
          "internalType": "uint256",
          "name": "amount",
          "type": "uint256"
        }
      ],
      "name": "TokensBurned",
      "type": "event"
    },
    {
      "anonymous": false,
      "inputs": [
        {
          "indexed": true,
          "internalType": "address",
          "name": "to",
          "type": "address"
        },
        {
          "indexed": false,
          "internalType": "uint256",
          "name": "amount",
          "type": "uint256"
        },
        {
          "indexed": false,
          "internalType": "string",
          "name": "reason",
          "type": "string"
        }
      ],
      "name": "TokensMinted",
      "type": "event"
    },
    {
      "anonymous": false,
      "inputs": [
        {
          "indexed": true,
          "internalType": "address",
          "name": "from",
          "type": "address"
        },
        {
          "indexed": true,
          "internalType": "address",
          "name": "to",
          "type": "address"
        },
        {
          "indexed": false,
          "internalType": "uint256",
          "name": "value",
          "type": "uint256"
        }
      ],
      "name": "Transfer",
      "type": "event"
    },
    {
      "anonymous": false,
      "inputs": [
        {
          "indexed": false,
          "internalType": "address",
          "name": "account",
          "type": "address"
        }
      ],
      "name": "Unpaused",
      "type": "event"
    },
    {
      "inputs": [
        {
          "internalType": "address",
          "name": "owner",
          "type": "address"
        },
        {
          "internalType": "address",
          "name": "spender",
          "type": "address"
        }
      ],
      "name": "allowance",
      "outputs": [
        {
          "internalType": "uint256",
          "name": "",
          "type": "uint256"
        }
      ],
      "stateMutability": "view",
      "type": "function"
    },
    {
      "inputs": [
        {
          "internalType": "address",
          "name": "spender",
          "type": "address"
        },
        {
          "internalType": "uint256",
          "name": "value",
          "type": "uint256"
        }
      ],
      "name": "approve",
      "outputs": [
        {
          "internalType": "bool",
          "name": "",
          "type": "bool"
        }
      ],
      "stateMutability": "nonpayable",
      "type": "function"
    },
    {
      "inputs": [
        {
          "internalType": "address",
          "name": "account",
          "type": "address"
        }
      ],
      "name": "balanceOf",
      "outputs": [
        {
          "internalType": "uint256",
          "name": "",
          "type": "uint256"
        }
      ],
      "stateMutability": "view",
      "type": "function"
    },
    {
      "inputs": [
        {
          "internalType": "uint256",
          "name": "value",
          "type": "uint256"
        }
      ],
      "name": "burn",
      "outputs": [],
      "stateMutability": "nonpayable",
      "type": "function"
    },
    {
      "inputs": [
        {
          "internalType": "address",
          "name": "account",
          "type": "address"
        },
        {
          "internalType": "uint256",
          "name": "value",
          "type": "uint256"
        }
      ],
      "name": "burnFrom",
      "outputs": [],
      "stateMutability": "nonpayable",
      "type": "function"
    },
    {
      "inputs": [],
      "name": "cap",
      "outputs": [
        {
          "internalType": "uint256",
          "name": "",
          "type": "uint256"
        }
      ],
      "stateMutability": "view",
      "type": "function"
    },
    {
      "inputs": [],
      "name": "decimals",
      "outputs": [
        {
          "internalType": "uint8",
          "name": "",
          "type": "uint8"
        }
      ],
      "stateMutability": "view",
      "type": "function"
    },
    {
      "inputs": [
        {
          "internalType": "address",
          "name": "to",
          "type": "address"
        },
        {
          "internalType": "uint256",
          "name": "amount",
          "type": "uint256"
        },
        {
          "internalType": "string",
          "name": "reason",
          "type": "string"
        }
      ],
      "name": "mint",
      "outputs": [],
      "stateMutability": "nonpayable",
      "type": "function"
    },
    {
      "inputs": [],
      "name": "name",
      "outputs": [
        {
          "internalType": "string",
          "name": "",
          "type": "string"
        }
      ],
      "stateMutability": "view",
      "type": "function"
    },
    {
      "inputs": [],
      "name": "owner",
      "outputs": [
        {
          "internalType": "address",
          "name": "",
          "type": "address"
        }
      ],
      "stateMutability": "view",
      "type": "function"
    },
    {
      "inputs": [],
      "name": "pause",
      "outputs": [],
      "stateMutability": "nonpayable",
      "type": "function"
    },
    {
      "inputs": [],
      "name": "paused",
      "outputs": [
        {
          "internalType": "bool",
          "name": "",
          "type": "bool"
        }
      ],
      "stateMutability": "view",
      "type": "function"
    },
    {
      "inputs": [],
      "name": "renounceOwnership",
      "outputs": [],
      "stateMutability": "nonpayable",
      "type": "function"
    },
    {
      "inputs": [
        {
          "internalType": "address",
          "name": "student",
          "type": "address"
        },
        {
          "internalType": "uint256",
          "name": "amount",
          "type": "uint256"
        },
        {
          "internalType": "string",
          "name": "reason",
          "type": "string"
        }
      ],
      "name": "rewardStudent",
      "outputs": [],
      "stateMutability": "nonpayable",
      "type": "function"
    },
    {
      "inputs": [],
      "name": "symbol",
      "outputs": [
        {
          "internalType": "string",
          "name": "",
          "type": "string"
        }
      ],
      "stateMutability": "view",
      "type": "function"
    },
    {
      "inputs": [],
      "name": "totalSupply",
      "outputs": [
        {
          "internalType": "uint256",
          "name": "",
          "type": "uint256"
        }
      ],
      "stateMutability": "view",
      "type": "function"
    },
    {
      "inputs": [
        {
          "internalType": "address",
          "name": "to",
          "type": "address"
        },
        {
          "internalType": "uint256",
          "name": "value",
          "type": "uint256"
        }
      ],
      "name": "transfer",
      "outputs": [
        {
          "internalType": "bool",
          "name": "",
          "type": "bool"
        }
      ],
      "stateMutability": "nonpayable",
      "type": "function"
    },
    {
      "inputs": [
        {
          "internalType": "address",
          "name": "from",
          "type": "address"
        },
        {
          "internalType": "address",
          "name": "to",
          "type": "address"
        },
        {
          "internalType": "uint256",
          "name": "value",
          "type": "uint256"
        }
      ],
      "name": "transferFrom",
      "outputs": [
        {
          "internalType": "bool",
          "name": "",
          "type": "bool"
        }
      ],
      "stateMutability": "nonpayable",
      "type": "function"
    },
    {
      "inputs": [
        {
          "internalType": "address",
          "name": "newOwner",
          "type": "address"
        }
      ],
      "name": "transferOwnership",
      "outputs": [],
      "stateMutability": "nonpayable",
      "type": "function"
    },
    {
      "inputs": [],
      "name": "unpause",
      "outputs": [],
      "stateMutability": "nonpayable",
      "type": "function"
    }
  ],
  "bytecode": "0x60a06040523480156200001157600080fd5b50336a52b7d2dcc80cd2e40000006040518060400160405280600a8152602001692632b0b9371922b0b93760b11b8152506040518060400160405280600381526020016245445560e81b81525081600390816200006f9190620003ec565b5060046200007e8282620003ec565b50505080600003620000ab5760405163392e1e2760e01b8152600060048201526024015b60405180910390fd5b6080526001600160a01b038116620000da57604051631e4fbdf760e01b815260006004820152602401620000a2565b620000e58162000107565b506001600655620001013369d3c21bcecceda100000062000159565b620004e0565b600580546001600160a01b038381166001600160a01b0319831681179093556040519116919082907f8be0079c531659141344cd1fd0a4f28419497f9722a3daafe3b4186f6b6457e090600090a35050565b6001600160a01b038216620001855760405163ec442f0560e01b815260006004820152602401620000a2565b620001936000838362000197565b5050565b620001a4838383620001a9565b505050565b620001b683838362000215565b6001600160a01b038316620001a4576000620001d160805190565b90506000620001df60025490565b9050818111156200020e5760405163279e7e1560e21b81526004810182905260248101839052604401620000a2565b5050505050565b6001600160a01b03831662000244578060026000828254620002389190620004b8565b90915550620002b89050565b6001600160a01b03831660009081526020819052604090205481811015620002995760405163391434e360e21b81526001600160a01b03851660048201526024810182905260448101839052606401620000a2565b6001600160a01b03841660009081526020819052604090209082900390555b6001600160a01b038216620002d657600280548290039055620002f5565b6001600160a01b03821660009081526020819052604090208054820190555b816001600160a01b0316836001600160a01b03167fddf252ad1be2c89b69c2b068fc378daa952ba7f163c4a11628f55a4df523b3ef836040516200033b91815260200190565b60405180910390a3505050565b634e487b7160e01b600052604160045260246000fd5b600181811c908216806200037357607f821691505b6020821081036200039457634e487b7160e01b600052602260045260246000fd5b50919050565b601f821115620001a457600081815260208120601f850160051c81016020861015620003c35750805b601f850160051c820191505b81811015620003e457828155600101620003cf565b505050505050565b81516001600160401b0381111562000408576200040862000348565b62000420816200041984546200035e565b846200039a565b602080601f8311600181146200045857600084156200043f5750858301515b600019600386901b1c1916600185901b178555620003e4565b600085815260208120601f198616915b82811015620004895788860151825594840194600190910190840162000468565b5085821015620004a85787850151600019600388901b60f8161c191681555b5050505050600190811b01905550565b80820180821115620004da57634e487b7160e01b600052601160045260246000fd5b92915050565b608051610edc62000503600039600081816101a80152610ad40152610edc6000f3fe608060405234801561001057600080fd5b506004361061012c5760003560e01c8063715018a6116100ad578063a9059cbb11610071578063a9059cbb14610263578063b69bee5414610276578063d3fc986414610289578063dd62ed3e1461029c578063f2fde38b146102d557600080fd5b8063715018a61461021d57806379cc6790146102255780638456cb59146102385780638da5cb5b1461024057806395d89b411461025b57600080fd5b8063355274ea116100f4578063355274ea146101a65780633f4ba83a146101cc57806342966c68146101d65780635c975abb146101e957806370a08231146101f457600080fd5b806306fdde0314610131578063095ea7b31461014f57806318160ddd1461017257806323b872dd14610184578063313ce56714610197575b600080fd5b6101396102e8565b6040516101469190610c50565b60405180910390f35b61016261015d366004610cba565b61037a565b6040519015158152602001610146565b6002545b604051908152602001610146565b610162610192366004610ce4565b610394565b60405160128152602001610146565b7f0000000000000000000000000000000000000000000000000000000000000000610176565b6101d46103b8565b005b6101d46101e4366004610d20565b6103ca565b60075460ff16610162565b610176610202366004610d39565b6001600160a01b031660009081526020819052604090205490565b6101d46103d7565b6101d4610233366004610cba565b6103e9565b6101d4610402565b6005546040516001600160a01b039091168152602001610146565b610139610412565b610162610271366004610cba565b610421565b6101d4610284366004610d5b565b61042f565b6101d4610297366004610d5b565b6105b5565b6101766102aa366004610de2565b6001600160a01b03918216600090815260016020908152604080832093909416825291909152205490565b6101d46102e3366004610d39565b6106c6565b6060600380546102f790610e15565b80601f016020809104026020016040519081016040528092919081815260200182805461032390610e15565b80156103705780601f1061034557610100808354040283529160200191610370565b820191906000526020600020905b81548152906001019060200180831161035357829003601f168201915b5050505050905090565b600033610388818585610701565b60019150505b92915050565b6000336103a2858285610713565b6103ad85858561078c565b506001949350505050565b6103c06107eb565b6103c8610818565b565b6103d4338261086a565b50565b6103df6107eb565b6103c860006108a0565b6103f4823383610713565b6103fe828261086a565b5050565b61040a6107eb565b6103c86108f2565b6060600480546102f790610e15565b60003361038881858561078c565b6104376107eb565b61043f61092f565b610447610953565b6001600160a01b0384166104a25760405162461bcd60e51b815260206004820152601b60248201527f4544553a2072657761726420746f207a65726f2061646472657373000000000060448201526064015b60405180910390fd5b600083116104ec5760405162461bcd60e51b815260206004820152601760248201527604544553a20616d6f756e74206d757374206265203e203604c1b6044820152606401610499565b3360009081526020819052604090205483111561054b5760405162461bcd60e51b815260206004820152601f60248201527f4544553a20696e73756666696369656e742061646d696e2062616c616e6365006044820152606401610499565b61055633858561078c565b836001600160a01b0316336001600160a01b03167fdd8065b16d3ab0a4386324ad5166f06c172576d701c0c0b3a56d3a31d4d5b34285858560405161059d93929190610e4f565b60405180910390a36105af6001600655565b50505050565b6105bd6107eb565b6105c561092f565b6105cd610953565b6001600160a01b0384166106235760405162461bcd60e51b815260206004820152601960248201527f4544553a206d696e7420746f207a65726f2061646472657373000000000000006044820152606401610499565b6000831161066d5760405162461bcd60e51b815260206004820152601760248201527604544553a20616d6f756e74206d757374206265203e203604c1b6044820152606401610499565b610677848461097d565b836001600160a01b03167f9d89e36eadf856db0ad9ffb5a569e07f95634dddd9501141ecf04820484ad0dc8484846040516106b493929190610e4f565b60405180910390a26105af6001600655565b6106ce6107eb565b6001600160a01b0381166106f857604051631e4fbdf760e01b815260006004820152602401610499565b6103d4816108a0565b61070e83838360016109b3565b505050565b6001600160a01b038381166000908152600160209081526040808320938616835292905220546000198110156105af578181101561077d57604051637dc7a0d960e11b81526001600160a01b03841660048201526024810182905260448101839052606401610499565b6105af848484840360006109b3565b6001600160a01b0383166107b657604051634b637e8f60e11b815260006004820152602401610499565b6001600160a01b0382166107e05760405163ec442f0560e01b815260006004820152602401610499565b61070e838383610a88565b6005546001600160a01b031633146103c85760405163118cdaa760e01b8152336004820152602401610499565b610820610a93565b6007805460ff191690557f5db9ee0a495bf2e6ff9c91a7834c1ba4fdd244a5e8aa4e537bd38aeae4b073aa335b6040516001600160a01b03909116815260200160405180910390a1565b6001600160a01b03821661089457604051634b637e8f60e11b815260006004820152602401610499565b6103fe82600083610a88565b600580546001600160a01b038381166001600160a01b0319831681179093556040519116919082907f8be0079c531659141344cd1fd0a4f28419497f9722a3daafe3b4186f6b6457e090600090a35050565b6108fa61092f565b6007805460ff191660011790557f62e78cea01bee320cd4e420270b5ea74000d11b0c9f74754ebdbfc544b05a25861084d3390565b60075460ff16156103c85760405163d93c066560e01b815260040160405180910390fd5b60026006540361097657604051633ee5aeb560e01b815260040160405180910390fd5b6002600655565b6001600160a01b0382166109a75760405163ec442f0560e01b815260006004820152602401610499565b6103fe60008383610a88565b6001600160a01b0384166109dd5760405163e602df0560e01b815260006004820152602401610499565b6001600160a01b038316610a0757604051634a1406b160e11b815260006004820152602401610499565b6001600160a01b03808516600090815260016020908152604080832093871683529290522082905580156105af57826001600160a01b0316846001600160a01b03167f8c5be1e5ebec7d5bd14f71427d1e84f3dd0314c0f7b2291e5b200ac8c7c3b92584604051610a7a91815260200190565b60405180910390a350505050565b61070e838383610ab6565b60075460ff166103c857604051638dfc202b60e01b815260040160405180910390fd5b610ac1838383610b26565b6001600160a01b03831661070e576002547f00000000000000000000000000000000000000000000000000000000000000009081811115610b1f5760405163279e7e1560e21b81526004810182905260248101839052604401610499565b5050505050565b6001600160a01b038316610b51578060026000828254610b469190610e85565b90915550610bc39050565b6001600160a01b03831660009081526020819052604090205481811015610ba45760405163391434e360e21b81526001600160a01b03851660048201526024810182905260448101839052606401610499565b6001600160a01b03841660009081526020819052604090209082900390555b6001600160a01b038216610bdf57600280548290039055610bfe565b6001600160a01b03821660009081526020819052604090208054820190555b816001600160a01b0316836001600160a01b03167fddf252ad1be2c89b69c2b068fc378daa952ba7f163c4a11628f55a4df523b3ef83604051610c4391815260200190565b60405180910390a3505050565b600060208083528351808285015260005b81811015610c7d57858101830151858201604001528201610c61565b506000604082860101526040601f19601f8301168501019250505092915050565b80356001600160a01b0381168114610cb557600080fd5b919050565b60008060408385031215610ccd57600080fd5b610cd683610c9e565b946020939093013593505050565b600080600060608486031215610cf957600080fd5b610d0284610c9e565b9250610d1060208501610c9e565b9150604084013590509250925092565b600060208284031215610d3257600080fd5b5035919050565b600060208284031215610d4b57600080fd5b610d5482610c9e565b9392505050565b60008060008060608587031215610d7157600080fd5b610d7a85610c9e565b935060208501359250604085013567ffffffffffffffff80821115610d9e57600080fd5b818701915087601f830112610db257600080fd5b813581811115610dc157600080fd5b886020828501011115610dd357600080fd5b95989497505060200194505050565b60008060408385031215610df557600080fd5b610dfe83610c9e565b9150610e0c60208401610c9e565b90509250929050565b600181811c90821680610e2957607f821691505b602082108103610e4957634e487b7160e01b600052602260045260246000fd5b50919050565b83815260406020820152816040820152818360608301376000818301606090810191909152601f909201601f1916010192915050565b8082018082111561038e57634e487b7160e01b600052601160045260246000fdfea2646970667358221220015858edbcc60c06269d62e871bd02ad837c3fc92866a0c40203841e30558e8e64736f6c63430008140033",
  "linkReferences": {},
  "deployedLinkReferences": {}
}