{
  "_format": "hh-sol-artifact-1",
  "contractName": "HackathonPool",
  "sourceName": "contracts/HackathonPool.sol",
  "abi": [
    {
      "inputs": [
        {
          "internalType": "address",
          "name": "_eduToken",
          "type": "address"
        }
      ],
      "stateMutability": "nonpayable",
      "type": "constructor"
    },
    {
      "inputs": [],
      "name": "EnforcedPause",
      "type": "error"
    },
    {
      "inputs": [],
      "name": "ExpectedPause",
      "type": "error"
    },
    {
      "inputs": [
        {
          "internalType": "address",
          "name": "owner",
          "type": "address"
        }
      ],
      "name": "OwnableInvalidOwner",
      "type": "error"
    },
    {
      "inputs": [
        {
          "internalType": "address",
          "name": "account",
          "type": "address"
        }
      ],
      "name": "OwnableUnauthorizedAccount",
      "type": "error"
    },
    {
      "inputs": [],
      "name": "ReentrancyGuardReentrantCall",
      "type": "error"
    },
    {
      "anonymous": false,
      "inputs": [
        {
          "indexed": true,
          "internalType": "uint256",
          "name": "hackathonId",
          "type": "uint256"
        },
        {
          "indexed": false,
          "internalType": "string",
          "name": "name",
          "type": "string"
        },
        {
          "indexed": false,
          "internalType": "uint256",
          "name": "entryFee",
          "type": "uint256"
        },
        {
          "indexed": false,
          "internalType": "uint256",
          "name": "maxParticipants",
          "type": "uint256"
        }
      ],
      "name": "HackathonCreated",
      "type": "event"
    },
    {
      "anonymous": false,
      "inputs": [
        {
          "indexed": true,
          "internalType": "address",
          "name": "previousOwner",
          "type": "address"
        },
        {
          "indexed": true,
          "internalType": "address",
          "name": "newOwner",
          "type": "address"
        }
      ],
      "name": "OwnershipTransferred",
      "type": "event"
    },
    {
      "anonymous": false,
      "inputs": [
        {
          "indexed": false,
          "internalType": "address",
          "name": "account",
          "type": "address"
        }
      ],
      "name": "Paused",
      "type": "event"
    },
    {
      "anonymous": false,
      "inputs": [
        {
          "indexed": true,
          "internalType": "uint256",
          "name": "hackathonId",
          "type": "uint256"
        },
        {
          "indexed": false,
          "internalType": "address[]",
          "name": "winners",
          "type": "address[]"
        },
        {
          "indexed": false,
          "internalType": "uint256[]",
          "name": "amounts",
          "type": "uint256[]"
        }
      ],
      "name": "RewardsDistributed",
      "type": "event"
    },
    {
      "anonymous": false,
      "inputs": [
        {
          "indexed": true,
          "internalType": "uint256",
          "name": "hackathonId",
          "type": "uint256"
        },
        {
          "indexed": true,
          "internalType": "address",
          "name": "student",
          "type": "address"
        },
        {
          "indexed": false,
          "internalType": "uint256",
          "name": "entryFee",
          "type": "uint256"
        }
      ],
      "name": "StudentRegistered",
      "type": "event"
    },
    {
      "anonymous": false,
      "inputs": [
        {
          "indexed": false,
          "internalType": "address",
          "name": "account",
          "type": "address"
        }
      ],
      "name": "Unpaused",
      "type": "event"
    },
    {
      "inputs": [
        {
          "internalType": "string",
          "name": "name",
          "type": "string"
        },
        {
          "internalType": "uint256",
          "name": "entryFee",
          "type": "uint256"
        },
        {
          "internalType": "uint256",
          "name": "maxParticipants",
          "type": "uint256"
        }
      ],
      "name": "createHackathon",
      "outputs": [],
      "stateMutability": "nonpayable",
      "type": "function"
    },
    {
      "inputs": [
        {
          "internalType": "uint256",
          "name": "hackathonId",
          "type": "uint256"
        }
      ],
      "name": "deactivateHackathon",
      "outputs": [],
      "stateMutability": "nonpayable",
      "type": "function"
    },
    {
      "inputs": [
        {
          "internalType": "uint256",
          "name": "hackathonId",
          "type": "uint256"
        },
        {
          "internalType": "address[]",
          "name": "winners",
          "type": "address[]"
        },
        {
          "internalType": "uint256[]",
          "name": "amounts",
          "type": "uint256[]"
        }
      ],
      "name": "distributeRewards",
      "outputs": [],
      "stateMutability": "nonpayable",
      "type": "function"
    },
    {
      "inputs": [],
      "name": "eduToken",
      "outputs": [
        {
          "internalType": "contract IERC20",
          "name": "",
          "type": "address"
        }
      ],
      "stateMutability": "view",
      "type": "function"
    },
    {
      "inputs": [],
      "name": "getHackathonCount",
      "outputs": [
        {
          "internalType": "uint256",
          "name": "",
          "type": "uint256"
        }
      ],
      "stateMutability": "view",
      "type": "function"
    },
    {
      "inputs": [
        {
          "internalType": "uint256",
          "name": "hackathonId",
          "type": "uint256"
        }
      ],
      "name": "getParticipants",
      "outputs": [
        {
          "internalType": "address[]",
          "name": "",
          "type": "address[]"
        }
      ],
      "stateMutability": "view",
      "type": "function"
    },
    {
      "inputs": [
        {
          "internalType": "uint256",
          "name": "",
          "type": "uint256"
        }
      ],
      "name": "hackathons",
      "outputs": [
        {
          "internalType": "uint256",
          "name": "id",
          "type": "uint256"
        },
        {
          "internalType": "string",
          "name": "name",
          "type": "string"
        },
        {
          "internalType": "uint256",
          "name": "entryFee",
          "type": "uint256"
        },
        {
          "internalType": "uint256",
          "name": "maxParticipants",
          "type": "uint256"
        },
        {
          "internalType": "uint256",
          "name": "participantCount",
          "type": "uint256"
        },
        {
          "internalType": "bool",
          "name": "active",
          "type": "bool"
        },
        {
          "internalType": "bool",
          "name": "rewardsDistributed",
          "type": "bool"
        }
      ],
      "stateMutability": "view",
      "type": "function"
    },
    {
      "inputs": [
        {
          "internalType": "uint256",
          "name": "hackathonId",
          "type": "uint256"
        },
        {
          "internalType": "address",
          "name": "student",
          "type": "address"
        }
      ],
      "name": "isRegistered",
      "outputs": [
        {
          "internalType": "bool",
          "name": "",
          "type": "bool"
        }
      ],
      "stateMutability": "view",
      "type": "function"
    },
    {
      "inputs": [],
      "name": "nextHackathonId",
      "outputs": [
        {
          "internalType": "uint256",
          "name": "",
          "type": "uint256"
        }
      ],
      "stateMutability": "view",
      "type": "function"
    },
    {
      "inputs": [],
      "name": "owner",
      "outputs": [
        {
          "internalType": "address",
          "name": "",
          "type": "address"
        }
      ],
      "stateMutability": "view",
      "type": "function"
    },
    {
      "inputs": [
        {
          "internalType": "uint256",
          "name": "",
          "type": "uint256"
        },
        {
          "internalType": "uint256",
          "name": "",
          "type": "uint256"
        }
      ],
      "name": "participantLists",
      "outputs": [
        {
          "internalType": "address",
          "name": "",
          "type": "address"
        }
      ],
      "stateMutability": "view",
      "type": "function"
    },
    {
      "inputs": [],
      "name": "pause",
      "outputs": [],
      "stateMutability": "nonpayable",
      "type": "function"
    },
    {
      "inputs": [],
      "name": "paused",
      "outputs": [
        {
          "internalType": "bool",
          "name": "",
          "type": "bool"
        }
      ],
      "stateMutability": "view",
      "type": "function"
    },
    {
      "inputs": [
        {
          "internalType": "uint256",
          "name": "hackathonId",
          "type": "uint256"
        }
      ],
      "name": "register",
      "outputs": [],
      "stateMutability": "nonpayable",
      "type": "function"
    },
    {
      "inputs": [
        {
          "internalType": "uint256",
          "name": "",
          "type": "uint256"
        },
        {
          "internalType": "address",
          "name": "",
          "type": "address"
        }
      ],
      "name": "registrations",
      "outputs": [
        {
          "internalType": "bool",
          "name": "",
          "type": "bool"
        }
      ],
      "stateMutability": "view",
      "type": "function"
    },
    {
      "inputs": [],
      "name": "renounceOwnership",
      "outputs": [],
      "stateMutability": "nonpayable",
      "type": "function"
    },
    {
      "inputs": [
        {
          "internalType": "address",
          "name": "newOwner",
          "type": "address"
        }
      ],
      "name": "transferOwnership",
      "outputs": [],
      "stateMutability": "nonpayable",
      "type": "function"
    },
    {
      "inputs": [],
      "name": "unpause",
      "outputs": [],
      "stateMutability": "nonpayable",
      "type": "function"
    }
  ],
  "bytecode": "0x608060405234801561001057600080fd5b5060405161150338038061150383398101604081905261002f91610135565b338061005657604051631e4fbdf760e01b8152600060048201526024015b60405180910390fd5b61005f816100e5565b50600180556001600160a01b0381166100ba5760405162461bcd60e51b815260206004820152601c60248201527f4861636b6174686f6e506f6f6c3a20696e76616c696420746f6b656e00000000604482015260640161004d565b600280546001600160a01b0390921661010002610100600160a81b0319909216919091179055610165565b600080546001600160a01b038381166001600160a01b0319831681178455604051919092169283917f8be0079c531659141344cd1fd0a4f28419497f9722a3daafe3b4186f6b6457e09190a35050565b60006020828403121561014757600080fd5b81516001600160a01b038116811461015e57600080fd5b9392505050565b61138f806101746000396000f3fe608060405234801561001057600080fd5b50600436106101165760003560e01c80638da5cb5b116100a2578063c1e3bd3e11610071578063c1e3bd3e1461026f578063c6c789ec1461028f578063da7bafce146102a2578063f207564e146102aa578063f2fde38b146102bd57600080fd5b80638da5cb5b146101d1578063b1ed1e6c146101e2578063b81f6e1814610210578063c10771941461024957600080fd5b80635c975abb116100e95780635c975abb1461015e57806367a524c91461017a578063715018a6146101915780638456cb59146101995780638d878889146101a157600080fd5b806319d6a88d1461011b5780631cd12e53146101305780632a58694f146101435780633f4ba83a14610156575b600080fd5b61012e610129366004610e36565b6102d0565b005b61012e61013e366004610eb0565b6105fb565b61012e610151366004610f2f565b61074e565b61012e610792565b60025460ff165b60405190151581526020015b60405180910390f35b61018360035481565b604051908152602001610171565b61012e6107a4565b61012e6107b6565b6002546101b99061010090046001600160a01b031681565b6040516001600160a01b039091168152602001610171565b6000546001600160a01b03166101b9565b6101656101f0366004610f64565b600560209081526000928352604080842090915290825290205460ff1681565b61016561021e366004610f64565b60009182526005602090815260408084206001600160a01b0393909316845291905290205460ff1690565b61025c610257366004610f2f565b6107c6565b6040516101719796959493929190610f90565b61028261027d366004610f2f565b610890565b6040516101719190611017565b6101b961029d366004611064565b6108fc565b600354610183565b61012e6102b8366004610f2f565b610934565b61012e6102cb366004611086565b610c32565b6102d8610c6d565b6102e0610c9a565b600354851061030a5760405162461bcd60e51b8152600401610301906110a8565b60405180910390fd5b8281146103595760405162461bcd60e51b815260206004820152601e60248201527f4861636b6174686f6e506f6f6c3a206c656e677468206d69736d6174636800006044820152606401610301565b600085815260046020526040902060050154610100900460ff16156103cb5760405162461bcd60e51b815260206004820152602260248201527f4861636b6174686f6e506f6f6c3a20616c726561647920646973747269627574604482015261195960f21b6064820152608401610301565b60005b8381101561058c5760008585838181106103ea576103ea6110df565b90506020020160208101906103ff9190611086565b6001600160a01b0316036104605760405162461bcd60e51b815260206004820152602260248201527f4861636b6174686f6e506f6f6c3a207a65726f20616464726573732077696e6e60448201526132b960f11b6064820152608401610301565b60025460009061010090046001600160a01b031663a9059cbb87878581811061048b5761048b6110df565b90506020020160208101906104a09190611086565b8686868181106104b2576104b26110df565b6040516001600160e01b031960e087901b1681526001600160a01b03909416600485015260200291909101356024830152506044016020604051808303816000875af1158015610506573d6000803e3d6000fd5b505050506040513d601f19601f8201168201806040525081019061052a91906110f5565b9050806105795760405162461bcd60e51b815260206004820152601e60248201527f4861636b6174686f6e506f6f6c3a207472616e73666572206661696c656400006044820152606401610301565b508061058481611117565b9150506103ce565b5060008581526004602052604090819020600501805461ff0019166101001790555185907fac9fe8ad7f55eac03284399116ecafc104f10459773f4cdf47063c46e5be335a906105e390879087908790879061113e565b60405180910390a26105f460018055565b5050505050565b610603610c6d565b61060b610cc4565b600380546000918261061c83611117565b9190505590506040518060e0016040528082815260200186868080601f0160208091040260200160405190810160405280939291908181526020018383808284376000920182905250938552505050602080830187905260408084018790526060840183905260016080850181905260a090940183905285835260048252909120835181559083015190918201906106b49082611259565b506040828101516002830155606083015160038301556080830151600483015560a08301516005909201805460c09094015115156101000261ff00199315159390931661ffff1990941693909317919091179091555181907ff96972ca4eb1f31f07f35b6d1842538787f7495a52d66ca052f8379443aa54ae9061073f908890889088908890611319565b60405180910390a25050505050565b610756610c6d565b60035481106107775760405162461bcd60e51b8152600401610301906110a8565b6000908152600460205260409020600501805460ff19169055565b61079a610c6d565b6107a2610ce8565b565b6107ac610c6d565b6107a26000610d3a565b6107be610c6d565b6107a2610d8a565b600460205260009081526040902080546001820180549192916107e8906111d0565b80601f0160208091040260200160405190810160405280929190818152602001828054610814906111d0565b80156108615780601f1061083657610100808354040283529160200191610861565b820191906000526020600020905b81548152906001019060200180831161084457829003601f168201915b505050506002830154600384015460048501546005909501549394919390925060ff8082169161010090041687565b6000818152600660209081526040918290208054835181840281018401909452808452606093928301828280156108f057602002820191906000526020600020905b81546001600160a01b031681526001909101906020018083116108d2575b50505050509050919050565b6006602052816000526040600020818154811061091857600080fd5b6000918252602090912001546001600160a01b03169150829050565b61093c610cc4565b610944610c9a565b600081815260046020526040902060035482106109735760405162461bcd60e51b8152600401610301906110a8565b600581015460ff166109c75760405162461bcd60e51b815260206004820152601960248201527f4861636b6174686f6e506f6f6c3a206e6f7420616374697665000000000000006044820152606401610301565b600082815260056020908152604080832033845290915290205460ff1615610a3b5760405162461bcd60e51b815260206004820152602160248201527f4861636b6174686f6e506f6f6c3a20616c7265616479207265676973746572656044820152601960fa1b6064820152608401610301565b60038101541580610a53575080600301548160040154105b610a955760405162461bcd60e51b8152602060048201526013602482015272121858dad85d1a1bdb941bdbdb0e88199d5b1b606a1b6044820152606401610301565b600281015415610b775760028054908201546040516323b872dd60e01b8152336004820152306024820152604481019190915260009161010090046001600160a01b0316906323b872dd906064016020604051808303816000875af1158015610b02573d6000803e3d6000fd5b505050506040513d601f19601f82011682018060405250810190610b2691906110f5565b905080610b755760405162461bcd60e51b815260206004820152601d60248201527f4861636b6174686f6e506f6f6c3a207061796d656e74206661696c65640000006044820152606401610301565b505b600082815260056020908152604080832033808552908352818420805460ff19166001908117909155868552600684529184208054928301815584529183200180546001600160a01b031916909117905560048201805491610bd883611117565b9190505550336001600160a01b0316827ffd78920c7efba30cf485606b56b03961ab52405cd9d48033e062edcc0a7175e38360020154604051610c1d91815260200190565b60405180910390a350610c2f60018055565b50565b610c3a610c6d565b6001600160a01b038116610c6457604051631e4fbdf760e01b815260006004820152602401610301565b610c2f81610d3a565b6000546001600160a01b031633146107a25760405163118cdaa760e01b8152336004820152602401610301565b600260015403610cbd57604051633ee5aeb560e01b815260040160405180910390fd5b6002600155565b60025460ff16156107a25760405163d93c066560e01b815260040160405180910390fd5b610cf0610dc7565b6002805460ff191690557f5db9ee0a495bf2e6ff9c91a7834c1ba4fdd244a5e8aa4e537bd38aeae4b073aa335b6040516001600160a01b03909116815260200160405180910390a1565b600080546001600160a01b038381166001600160a01b0319831681178455604051919092169283917f8be0079c531659141344cd1fd0a4f28419497f9722a3daafe3b4186f6b6457e09190a35050565b610d92610cc4565b6002805460ff191660011790557f62e78cea01bee320cd4e420270b5ea74000d11b0c9f74754ebdbfc544b05a258610d1d3390565b60025460ff166107a257604051638dfc202b60e01b815260040160405180910390fd5b60008083601f840112610dfc57600080fd5b50813567ffffffffffffffff811115610e1457600080fd5b6020830191508360208260051b8501011115610e2f57600080fd5b9250929050565b600080600080600060608688031215610e4e57600080fd5b85359450602086013567ffffffffffffffff80821115610e6d57600080fd5b610e7989838a01610dea565b90965094506040880135915080821115610e9257600080fd5b50610e9f88828901610dea565b969995985093965092949392505050565b60008060008060608587031215610ec657600080fd5b843567ffffffffffffffff80821115610ede57600080fd5b818701915087601f830112610ef257600080fd5b813581811115610f0157600080fd5b886020828501011115610f1357600080fd5b6020928301999098509187013596604001359550909350505050565b600060208284031215610f4157600080fd5b5035919050565b80356001600160a01b0381168114610f5f57600080fd5b919050565b60008060408385031215610f7757600080fd5b82359150610f8760208401610f48565b90509250929050565b8781526000602060e08184015288518060e085015260005b81811015610fc5578a810183015185820161010001528201610fa8565b506101009150600082828601015281601f19601f8301168501019250505086604083015285606083015284608083015261100360a083018515159052565b82151560c083015298975050505050505050565b6020808252825182820181905260009190848201906040850190845b818110156110585783516001600160a01b031683529284019291840191600101611033565b50909695505050505050565b6000806040838503121561107757600080fd5b50508035926020909101359150565b60006020828403121561109857600080fd5b6110a182610f48565b9392505050565b6020808252601d908201527f4861636b6174686f6e506f6f6c3a20646f6573206e6f74206578697374000000604082015260600190565b634e487b7160e01b600052603260045260246000fd5b60006020828403121561110757600080fd5b815180151581146110a157600080fd5b60006001820161113757634e487b7160e01b600052601160045260246000fd5b5060010190565b6040808252810184905260008560608301825b8781101561117f576001600160a01b0361116a84610f48565b16825260209283019290910190600101611151565b5083810360208501528481526001600160fb1b0385111561119f57600080fd5b8460051b915081866020830137016020019695505050505050565b634e487b7160e01b600052604160045260246000fd5b600181811c908216806111e457607f821691505b60208210810361120457634e487b7160e01b600052602260045260246000fd5b50919050565b601f82111561125457600081815260208120601f850160051c810160208610156112315750805b601f850160051c820191505b818110156112505782815560010161123d565b5050505b505050565b815167ffffffffffffffff811115611273576112736111ba565b6112878161128184546111d0565b8461120a565b602080601f8311600181146112bc57600084156112a45750858301515b600019600386901b1c1916600185901b178555611250565b600085815260208120601f198616915b828110156112eb578886015182559484019460019091019084016112cc565b50858210156113095787850151600019600388901b60f8161c191681555b5050505050600190811b01905550565b606081528360608201528385608083013760006080858301015260006080601f19601f87011683010190508360208301528260408301529594505050505056fea2646970667358221220c5631f0f34c8f9f0a68b23cf6aac47038ef7be263b3aab80ac8bb7be770e2bdc64736f6c63430008140033",
  "linkReferences": {},
  "deployedLinkReferences": {}
}