{
  "_format": "hh-sol-artifact-1",
  "contractName": "CertificateNFT",
  "sourceName": "contracts/CertificateNFT.sol",
  "abi": [
    {
      "inputs": [],
      "stateMutability": "nonpayable",
      "type": "constructor"
    },
    {
      "inputs": [
        {
          "internalType": "address",
          "name": "sender",
          "type": "address"
        },
        {
          "internalType": "uint256",
          "name": "tokenId",
          "type": "uint256"
        },
        {
          "internalType": "address",
          "name": "owner",
          "type": "address"
        }
      ],
      "name": "ERC721IncorrectOwner",
      "type": "error"
    },
    {
      "inputs": [
        {
          "internalType": "address",
          "name": "operator",
          "type": "address"
        },
        {
          "internalType": "uint256",
          "name": "tokenId",
          "type": "uint256"
        }
      ],
      "name": "ERC721InsufficientApproval",
      "type": "error"
    },
    {
      "inputs": [
        {
          "internalType": "address",
          "name": "approver",
          "type": "address"
        }
      ],
      "name": "ERC721InvalidApprover",
      "type": "error"
    },
    {
      "inputs": [
        {
          "internalType": "address",
          "name": "operator",
          "type": "address"
        }
      ],
      "name": "ERC721InvalidOperator",
      "type": "error"
    },
    {
      "inputs": [
        {
          "internalType": "address",
          "name": "owner",
          "type": "address"
        }
      ],
      "name": "ERC721InvalidOwner",
      "type": "error"
    },
    {
      "inputs": [
        {
          "internalType": "address",
          "name": "receiver",
          "type": "address"
        }
      ],
      "name": "ERC721InvalidReceiver",
      "type": "error"
    },
    {
      "inputs": [
        {
          "internalType": "address",
          "name": "sender",
          "type": "address"
        }
      ],
      "name": "ERC721InvalidSender",
      "type": "error"
    },
    {
      "inputs": [
        {
          "internalType": "uint256",
          "name": "tokenId",
          "type": "uint256"
        }
      ],
      "name": "ERC721NonexistentToken",
      "type": "error"
    },
    {
      "inputs": [],
      "name": "EnforcedPause",
      "type": "error"
    },
    {
      "inputs": [],
      "name": "ExpectedPause",
      "type": "error"
    },
    {
      "inputs": [
        {
          "internalType": "address",
          "name": "owner",
          "type": "address"
        }
      ],
      "name": "OwnableInvalidOwner",
      "type": "error"
    },
    {
      "inputs": [
        {
          "internalType": "address",
          "name": "account",
          "type": "address"
        }
      ],
      "name": "OwnableUnauthorizedAccount",
      "type": "error"
    },
    {
      "inputs": [],
      "name": "ReentrancyGuardReentrantCall",
      "type": "error"
    },
    {
      "anonymous": false,
      "inputs": [
        {
          "indexed": true,
          "internalType": "address",
          "name": "owner",
          "type": "address"
        },
        {
          "indexed": true,
          "internalType": "address",
          "name": "approved",
          "type": "address"
        },
        {
          "indexed": true,
          "internalType": "uint256",
          "name": "tokenId",
          "type": "uint256"
        }
      ],
      "name": "Approval",
      "type": "event"
    },
    {
      "anonymous": false,
      "inputs": [
        {
          "indexed": true,
          "internalType": "address",
          "name": "owner",
          "type": "address"
        },
        {
          "indexed": true,
          "internalType": "address",
          "name": "operator",
          "type": "address"
        },
        {
          "indexed": false,
          "internalType": "bool",
          "name": "approved",
          "type": "bool"
        }
      ],
      "name": "ApprovalForAll",
      "type": "event"
    },
    {
      "anonymous": false,
      "inputs": [
        {
          "indexed": false,
          "internalType": "uint256",
          "name": "_fromTokenId",
          "type": "uint256"
        },
        {
          "indexed": false,
          "internalType": "uint256",
          "name": "_toTokenId",
          "type": "uint256"
        }
      ],
      "name": "BatchMetadataUpdate",
      "type": "event"
    },
    {
      "anonymous": false,
      "inputs": [
        {
          "indexed": true,
          "internalType": "uint256",
          "name": "tokenId",
          "type": "uint256"
        },
        {
          "indexed": true,
          "internalType": "address",
          "name": "student",
          "type": "address"
        },
        {
          "indexed": false,
          "internalType": "string",
          "name": "uri",
          "type": "string"
        },
        {
          "indexed": false,
          "internalType": "string",
          "name": "title",
          "type": "string"
        }
      ],
      "name": "CertificateIssued",
      "type": "event"
    },
    {
      "anonymous": false,
      "inputs": [
        {
          "indexed": true,
          "internalType": "uint256",
          "name": "tokenId",
          "type": "uint256"
        }
      ],
      "name": "CertificateRevoked",
      "type": "event"
    },
    {
      "anonymous": false,
      "inputs": [
        {
          "indexed": false,
          "internalType": "uint256",
          "name": "_tokenId",
          "type": "uint256"
        }
      ],
      "name": "MetadataUpdate",
      "type": "event"
    },
    {
      "anonymous": false,
      "inputs": [
        {
          "indexed": true,
          "internalType": "address",
          "name": "previousOwner",
          "type": "address"
        },
        {
          "indexed": true,
          "internalType": "address",
          "name": "newOwner",
          "type": "address"
        }
      ],
      "name": "OwnershipTransferred",
      "type": "event"
    },
    {
      "anonymous": false,
      "inputs": [
        {
          "indexed": false,
          "internalType": "address",
          "name": "account",
          "type": "address"
        }
      ],
      "name": "Paused",
      "type": "event"
    },
    {
      "anonymous": false,
      "inputs": [
        {
          "indexed": true,
          "internalType": "address",
          "name": "from",
          "type": "address"
        },
        {
          "indexed": true,
          "internalType": "address",
          "name": "to",
          "type": "address"
        },
        {
          "indexed": true,
          "internalType": "uint256",
          "name": "tokenId",
          "type": "uint256"
        }
      ],
      "name": "Transfer",
      "type": "event"
    },
    {
      "anonymous": false,
      "inputs": [
        {
          "indexed": false,
          "internalType": "address",
          "name": "account",
          "type": "address"
        }
      ],
      "name": "Unpaused",
      "type": "event"
    },
    {
      "inputs": [
        {
          "internalType": "address",
          "name": "to",
          "type": "address"
        },
        {
          "internalType": "uint256",
          "name": "tokenId",
          "type": "uint256"
        }
      ],
      "name": "approve",
      "outputs": [],
      "stateMutability": "nonpayable",
      "type": "function"
    },
    {
      "inputs": [
        {
          "internalType": "address",
          "name": "owner",
          "type": "address"
        }
      ],
      "name": "balanceOf",
      "outputs": [
        {
          "internalType": "uint256",
          "name": "",
          "type": "uint256"
        }
      ],
      "stateMutability": "view",
      "type": "function"
    },
    {
      "inputs": [
        {
          "internalType": "uint256",
          "name": "",
          "type": "uint256"
        }
      ],
      "name": "certificates",
      "outputs": [
        {
          "internalType": "string",
          "name": "title",
          "type": "string"
        },
        {
          "internalType": "string",
          "name": "category",
          "type": "string"
        },
        {
          "internalType": "address",
          "name": "student",
          "type": "address"
        },
        {
          "internalType": "uint256",
          "name": "issuedAt",
          "type": "uint256"
        },
        {
          "internalType": "bool",
          "name": "revoked",
          "type": "bool"
        }
      ],
      "stateMutability": "view",
      "type": "function"
    },
    {
      "inputs": [
        {
          "internalType": "uint256",
          "name": "tokenId",
          "type": "uint256"
        }
      ],
      "name": "getApproved",
      "outputs": [
        {
          "internalType": "address",
          "name": "",
          "type": "address"
        }
      ],
      "stateMutability": "view",
      "type": "function"
    },
    {
      "inputs": [
        {
          "internalType": "uint256",
          "name": "tokenId",
          "type": "uint256"
        }
      ],
      "name": "getCertificate",
      "outputs": [
        {
          "components": [
            {
              "internalType": "string",
              "name": "title",
              "type": "string"
            },
            {
              "internalType": "string",
              "name": "category",
              "type": "string"
            },
            {
              "internalType": "address",
              "name": "student",
              "type": "address"
            },
            {
              "internalType": "uint256",
              "name": "issuedAt",
              "type": "uint256"
            },
            {
              "internalType": "bool",
              "name": "revoked",
              "type": "bool"
            }
          ],
          "internalType": "struct CertificateNFT.CertificateData",
          "name": "",
          "type": "tuple"
        }
      ],
      "stateMutability": "view",
      "type": "function"
    },
    {
      "inputs": [
        {
          "internalType": "address",
          "name": "owner",
          "type": "address"
        },
        {
          "internalType": "address",
          "name": "operator",
          "type": "address"
        }
      ],
      "name": "isApprovedForAll",
      "outputs": [
        {
          "internalType": "bool",
          "name": "",
          "type": "bool"
        }
      ],
      "stateMutability": "view",
      "type": "function"
    },
    {
      "inputs": [],
      "name": "name",
      "outputs": [
        {
          "internalType": "string",
          "name": "",
          "type": "string"
        }
      ],
      "stateMutability": "view",
      "type": "function"
    },
    {
      "inputs": [],
      "name": "owner",
      "outputs": [
        {
          "internalType": "address",
          "name": "",
          "type": "address"
        }
      ],
      "stateMutability": "view",
      "type": "function"
    },
    {
      "inputs": [
        {
          "internalType": "uint256",
          "name": "tokenId",
          "type": "uint256"
        }
      ],
      "name": "ownerOf",
      "outputs": [
        {
          "internalType": "address",
          "name": "",
          "type": "address"
        }
      ],
      "stateMutability": "view",
      "type": "function"
    },
    {
      "inputs": [],
      "name": "pause",
      "outputs": [],
      "stateMutability": "nonpayable",
      "type": "function"
    },
    {
      "inputs": [],
      "name": "paused",
      "outputs": [
        {
          "internalType": "bool",
          "name": "",
          "type": "bool"
        }
      ],
      "stateMutability": "view",
      "type": "function"
    },
    {
      "inputs": [],
      "name": "renounceOwnership",
      "outputs": [],
      "stateMutability": "nonpayable",
      "type": "function"
    },
    {
      "inputs": [
        {
          "internalType": "uint256",
          "name": "tokenId",
          "type": "uint256"
        }
      ],
      "name": "revokeCertificate",
      "outputs": [],
      "stateMutability": "nonpayable",
      "type": "function"
    },
    {
      "inputs": [
        {
          "internalType": "address",
          "name": "student",
          "type": "address"
        },
        {
          "internalType": "string",
          "name": "uri",
          "type": "string"
        },
        {
          "internalType": "string",
          "name": "title",
          "type": "string"
        },
        {
          "internalType": "string",
          "name": "category",
          "type": "string"
        }
      ],
      "name": "safeMint",
      "outputs": [
        {
          "internalType": "uint256",
          "name": "",
          "type": "uint256"
        }
      ],
      "stateMutability": "nonpayable",
      "type": "function"
    },
    {
      "inputs": [
        {
          "internalType": "address",
          "name": "from",
          "type": "address"
        },
        {
          "internalType": "address",
          "name": "to",
          "type": "address"
        },
        {
          "internalType": "uint256",
          "name": "tokenId",
          "type": "uint256"
        }
      ],
      "name": "safeTransferFrom",
      "outputs": [],
      "stateMutability": "nonpayable",
      "type": "function"
    },
    {
      "inputs": [
        {
          "internalType": "address",
          "name": "from",
          "type": "address"
        },
        {
          "internalType": "address",
          "name": "to",
          "type": "address"
        },
        {
          "internalType": "uint256",
          "name": "tokenId",
          "type": "uint256"
        },
        {
          "internalType": "bytes",
          "name": "data",
          "type": "bytes"
        }
      ],
      "name": "safeTransferFrom",
      "outputs": [],
      "stateMutability": "nonpayable",
      "type": "function"
    },
    {
      "inputs": [
        {
          "internalType": "address",
          "name": "operator",
          "type": "address"
        },
        {
          "internalType": "bool",
          "name": "approved",
          "type": "bool"
        }
      ],
      "name": "setApprovalForAll",
      "outputs": [],
      "stateMutability": "nonpayable",
      "type": "function"
    },
    {
      "inputs": [
        {
          "internalType": "bytes4",
          "name": "interfaceId",
          "type": "bytes4"
        }
      ],
      "name": "supportsInterface",
      "outputs": [
        {
          "internalType": "bool",
          "name": "",
          "type": "bool"
        }
      ],
      "stateMutability": "view",
      "type": "function"
    },
    {
      "inputs": [],
      "name": "symbol",
      "outputs": [
        {
          "internalType": "string",
          "name": "",
          "type": "string"
        }
      ],
      "stateMutability": "view",
      "type": "function"
    },
    {
      "inputs": [
        {
          "internalType": "uint256",
          "name": "tokenId",
          "type": "uint256"
        }
      ],
      "name": "tokenURI",
      "outputs": [
        {
          "internalType": "string",
          "name": "",
          "type": "string"
        }
      ],
      "stateMutability": "view",
      "type": "function"
    },
    {
      "inputs": [],
      "name": "totalSupply",
      "outputs": [
        {
          "internalType": "uint256",
          "name": "",
          "type": "uint256"
        }
      ],
      "stateMutability": "view",
      "type": "function"
    },
    {
      "inputs": [
        {
          "internalType": "address",
          "name": "from",
          "type": "address"
        },
        {
          "internalType": "address",
          "name": "to",
          "type": "address"
        },
        {
          "internalType": "uint256",
          "name": "tokenId",
          "type": "uint256"
        }
      ],
      "name": "transferFrom",
      "outputs": [],
      "stateMutability": "nonpayable",
      "type": "function"
    },
    {
      "inputs": [
        {
          "internalType": "address",
          "name": "newOwner",
          "type": "address"
        }
      ],
      "name": "transferOwnership",
      "outputs": [],
      "stateMutability": "nonpayable",
      "type": "function"
    },
    {
      "inputs": [],
      "name": "unpause",
      "outputs": [],
      "stateMutability": "nonpayable",
      "type": "function"
    }
  ],
  "bytecode": "0x60806040523480156200001157600080fd5b50336040518060400160405280601681526020017f4c6561726e324561726e2043657274696669636174650000000000000000000081525060405180604001604052806007815260200166130c9150d1549560ca1b81525081600090816200007a9190620001c9565b506001620000898282620001c9565b5050506001600160a01b038116620000bb57604051631e4fbdf760e01b81526000600482015260240160405180910390fd5b620000c681620000d2565b50600160085562000295565b600780546001600160a01b038381166001600160a01b0319831681179093556040519116919082907f8be0079c531659141344cd1fd0a4f28419497f9722a3daafe3b4186f6b6457e090600090a35050565b634e487b7160e01b600052604160045260246000fd5b600181811c908216806200014f57607f821691505b6020821081036200017057634e487b7160e01b600052602260045260246000fd5b50919050565b601f821115620001c457600081815260208120601f850160051c810160208610156200019f5750805b601f850160051c820191505b81811015620001c057828155600101620001ab565b5050505b505050565b81516001600160401b03811115620001e557620001e562000124565b620001fd81620001f684546200013a565b8462000176565b602080601f8311600181146200023557600084156200021c5750858301515b600019600386901b1c1916600185901b178555620001c0565b600085815260208120601f198616915b82811015620002665788860151825594840194600190910190840162000245565b5085821015620002855787850151600019600388901b60f8161c191681555b5050505050600190811b01905550565b611d8c80620002a56000396000f3fe608060405234801561001057600080fd5b50600436106101585760003560e01c80636352211e116100c357806395d89b411161007c57806395d89b41146102da578063a22cb465146102e2578063b88d4fde146102f5578063c87b56dd14610308578063e985e9c51461031b578063f2fde38b1461032e57600080fd5b80636352211e1461026f578063663b3e221461028257806370a08231146102a6578063715018a6146102b95780638456cb59146102c15780638da5cb5b146102c957600080fd5b806318160ddd1161011557806318160ddd1461020e57806323b872dd146102165780633f4ba83a1461022957806342842e0e1461023157806351640fee146102445780635c975abb1461026457600080fd5b806301ffc9a71461015d57806303a80dfb1461018557806306f5497e146101a657806306fdde03146101bb578063081812fc146101d0578063095ea7b3146101fb575b600080fd5b61017061016b36600461168b565b610341565b60405190151581526020015b60405180910390f35b61019861019336600461170d565b610352565b60405190815260200161017c565b6101b96101b43660046117b8565b6105a5565b005b6101c3610614565b60405161017c9190611821565b6101e36101de3660046117b8565b6106a6565b6040516001600160a01b03909116815260200161017c565b6101b9610209366004611834565b6106cf565b600a54610198565b6101b961022436600461185e565b6106de565b6101b9610769565b6101b961023f36600461185e565b61077b565b6102576102523660046117b8565b61079b565b60405161017c919061189a565b60095460ff16610170565b6101e361027d3660046117b8565b610968565b6102956102903660046117b8565b610973565b60405161017c959493929190611908565b6101986102b4366004611956565b610ac0565b6101b9610b08565b6101b9610b1a565b6007546001600160a01b03166101e3565b6101c3610b2a565b6101b96102f0366004611971565b610b39565b6101b96103033660046119c3565b610b44565b6101c36103163660046117b8565b610b5c565b610170610329366004611a9f565b610b67565b6101b961033c366004611956565b610b95565b600061034c82610bd3565b92915050565b600061035c610bf8565b610364610c25565b61036c610c49565b6001600160a01b0388166103d35760405162461bcd60e51b8152602060048201526024808201527f43657274696669636174654e46543a206d696e7420746f207a65726f206164646044820152637265737360e01b60648201526084015b60405180910390fd5b600a8054600091826103e483611ad2565b9190505590506103f48982610c73565b6104348189898080601f016020809104026020016040519081016040528093929190818152602001838380828437600092019190915250610c8d92505050565b6040518060a0016040528087878080601f016020809104026020016040519081016040528093929190818152602001838380828437600092019190915250505090825250604080516020601f88018190048102820181019092528681529181019190879087908190840183828082843760009201829052509385525050506001600160a01b038c16602080840191909152426040808501919091526060909301829052848252600b905220815181906104ed9082611b79565b50602082015160018201906105029082611b79565b506040828101516002830180546001600160a01b0319166001600160a01b03928316179055606084015160038401556080909301516004909201805460ff19169215159290921790915551908a169082907f8155ad64ed4454333355c45532f2f3ba06e3242f30944f6acdf9b6b989453c2590610586908c908c908c908c90611c62565b60405180910390a3905061059a6001600855565b979650505050505050565b6105ad610bf8565b600a5481106105ce5760405162461bcd60e51b81526004016103ca90611c89565b6000818152600b6020526040808220600401805460ff191660011790555182917fefa6c5f47ac2523bb4db18032377bf7fdce0fa9d86eddcae1ca9bba38be615d791a250565b60606000805461062390611af9565b80601f016020809104026020016040519081016040528092919081815260200182805461064f90611af9565b801561069c5780601f106106715761010080835404028352916020019161069c565b820191906000526020600020905b81548152906001019060200180831161067f57829003601f168201915b5050505050905090565b60006106b182610cdd565b506000828152600460205260409020546001600160a01b031661034c565b6106da828233610d16565b5050565b6001600160a01b03821661070857604051633250574960e11b8152600060048201526024016103ca565b6000610715838333610d23565b9050836001600160a01b0316816001600160a01b031614610763576040516364283d7b60e01b81526001600160a01b03808616600483015260248201849052821660448201526064016103ca565b50505050565b610771610bf8565b610779610e1c565b565b61079683838360405180602001604052806000815250610b44565b505050565b6107d86040518060a00160405280606081526020016060815260200160006001600160a01b03168152602001600081526020016000151581525090565b600a5482106107f95760405162461bcd60e51b81526004016103ca90611c89565b6000828152600b602052604090819020815160a0810190925280548290829061082190611af9565b80601f016020809104026020016040519081016040528092919081815260200182805461084d90611af9565b801561089a5780601f1061086f5761010080835404028352916020019161089a565b820191906000526020600020905b81548152906001019060200180831161087d57829003601f168201915b505050505081526020016001820180546108b390611af9565b80601f01602080910402602001604051908101604052809291908181526020018280546108df90611af9565b801561092c5780601f106109015761010080835404028352916020019161092c565b820191906000526020600020905b81548152906001019060200180831161090f57829003601f168201915b505050918352505060028201546001600160a01b031660208201526003820154604082015260049091015460ff16151560609091015292915050565b600061034c82610cdd565b600b6020526000908152604090208054819061098e90611af9565b80601f01602080910402602001604051908101604052809291908181526020018280546109ba90611af9565b8015610a075780601f106109dc57610100808354040283529160200191610a07565b820191906000526020600020905b8154815290600101906020018083116109ea57829003601f168201915b505050505090806001018054610a1c90611af9565b80601f0160208091040260200160405190810160405280929190818152602001828054610a4890611af9565b8015610a955780601f10610a6a57610100808354040283529160200191610a95565b820191906000526020600020905b815481529060010190602001808311610a7857829003601f168201915b505050506002830154600384015460049094015492936001600160a01b039091169290915060ff1685565b60006001600160a01b038216610aec576040516322718ad960e21b8152600060048201526024016103ca565b506001600160a01b031660009081526003602052604090205490565b610b10610bf8565b6107796000610e6e565b610b22610bf8565b610779610ec0565b60606001805461062390611af9565b6106da338383610efd565b610b4f8484846106de565b6107633385858585610f9c565b606061034c826110c7565b6001600160a01b03918216600090815260056020908152604080832093909416825291909152205460ff1690565b610b9d610bf8565b6001600160a01b038116610bc757604051631e4fbdf760e01b8152600060048201526024016103ca565b610bd081610e6e565b50565b60006001600160e01b03198216632483248360e11b148061034c575061034c826111d8565b6007546001600160a01b031633146107795760405163118cdaa760e01b81523360048201526024016103ca565b60095460ff16156107795760405163d93c066560e01b815260040160405180910390fd5b600260085403610c6c57604051633ee5aeb560e01b815260040160405180910390fd5b6002600855565b6106da828260405180602001604052806000815250611228565b6000828152600660205260409020610ca58282611b79565b506040518281527ff8e1a15aba9398e019f0b49df1a4fde98ee17ae345cb5f6b5e2c27f5033e8ce79060200160405180910390a15050565b6000818152600260205260408120546001600160a01b03168061034c57604051637e27328960e01b8152600481018490526024016103ca565b6107968383836001611240565b6000828152600260205260408120546001600160a01b0390811690831615610d5057610d50818486611346565b6001600160a01b03811615610d8e57610d6d600085600080611240565b6001600160a01b038116600090815260036020526040902080546000190190555b6001600160a01b03851615610dbd576001600160a01b0385166000908152600360205260409020805460010190555b60008481526002602052604080822080546001600160a01b0319166001600160a01b0389811691821790925591518793918516917fddf252ad1be2c89b69c2b068fc378daa952ba7f163c4a11628f55a4df523b3ef91a4949350505050565b610e246113aa565b6009805460ff191690557f5db9ee0a495bf2e6ff9c91a7834c1ba4fdd244a5e8aa4e537bd38aeae4b073aa335b6040516001600160a01b03909116815260200160405180910390a1565b600780546001600160a01b038381166001600160a01b0319831681179093556040519116919082907f8be0079c531659141344cd1fd0a4f28419497f9722a3daafe3b4186f6b6457e090600090a35050565b610ec8610c25565b6009805460ff191660011790557f62e78cea01bee320cd4e420270b5ea74000d11b0c9f74754ebdbfc544b05a258610e513390565b6001600160a01b038216610f2f57604051630b61174360e31b81526001600160a01b03831660048201526024016103ca565b6001600160a01b03838116600081815260056020908152604080832094871680845294825291829020805460ff191686151590811790915591519182527f17307eab39ab6107e8899845ad3d59bd9653f200f220920489ca2b5937696c31910160405180910390a3505050565b6001600160a01b0383163b156110c057604051630a85bd0160e11b81526001600160a01b0384169063150b7a0290610fde908890889087908790600401611ccd565b6020604051808303816000875af1925050508015611019575060408051601f3d908101601f1916820190925261101691810190611d0a565b60015b611082573d808015611047576040519150601f19603f3d011682016040523d82523d6000602084013e61104c565b606091505b50805160000361107a57604051633250574960e11b81526001600160a01b03851660048201526024016103ca565b805160208201fd5b6001600160e01b03198116630a85bd0160e11b146110be57604051633250574960e11b81526001600160a01b03851660048201526024016103ca565b505b5050505050565b60606110d282610cdd565b50600082815260066020526040812080546110ec90611af9565b80601f016020809104026020016040519081016040528092919081815260200182805461111890611af9565b80156111655780601f1061113a57610100808354040283529160200191611165565b820191906000526020600020905b81548152906001019060200180831161114857829003601f168201915b50505050509050600061118360408051602081019091526000815290565b90508051600003611195575092915050565b8151156111c75780826040516020016111af929190611d27565b60405160208183030381529060405292505050919050565b6111d0846113cd565b949350505050565b60006001600160e01b031982166380ac58cd60e01b148061120957506001600160e01b03198216635b5e139f60e01b145b8061034c57506301ffc9a760e01b6001600160e01b031983161461034c565b6112328383611442565b610796336000858585610f9c565b808061125457506001600160a01b03821615155b1561131657600061126484610cdd565b90506001600160a01b038316158015906112905750826001600160a01b0316816001600160a01b031614155b80156112a357506112a18184610b67565b155b156112cc5760405163a9fbf51f60e01b81526001600160a01b03841660048201526024016103ca565b81156113145783856001600160a01b0316826001600160a01b03167f8c5be1e5ebec7d5bd14f71427d1e84f3dd0314c0f7b2291e5b200ac8c7c3b92560405160405180910390a45b505b5050600090815260046020526040902080546001600160a01b0319166001600160a01b0392909216919091179055565b6113518383836114a7565b610796576001600160a01b03831661137f57604051637e27328960e01b8152600481018290526024016103ca565b60405163177e802f60e01b81526001600160a01b0383166004820152602481018290526044016103ca565b60095460ff1661077957604051638dfc202b60e01b815260040160405180910390fd5b60606113d882610cdd565b5060006113f060408051602081019091526000815290565b90506000815111611410576040518060200160405280600081525061143b565b8061141a8461150a565b60405160200161142b929190611d27565b6040516020818303038152906040525b9392505050565b6001600160a01b03821661146c57604051633250574960e11b8152600060048201526024016103ca565b600061147a83836000610d23565b90506001600160a01b03811615610796576040516339e3563760e11b8152600060048201526024016103ca565b60006001600160a01b038316158015906111d05750826001600160a01b0316846001600160a01b031614806114e157506114e18484610b67565b806111d05750506000908152600460205260409020546001600160a01b03908116911614919050565b606060006115178361159d565b600101905060008167ffffffffffffffff811115611537576115376119ad565b6040519080825280601f01601f191660200182016040528015611561576020820181803683370190505b5090508181016020015b600019016f181899199a1a9b1b9c1cb0b131b232b360811b600a86061a8153600a850494508461156b57509392505050565b60008072184f03e93ff9f4daa797ed6e38ed64bf6a1f0160401b83106115dc5772184f03e93ff9f4daa797ed6e38ed64bf6a1f0160401b830492506040015b6d04ee2d6d415b85acef81000000008310611608576d04ee2d6d415b85acef8100000000830492506020015b662386f26fc10000831061162657662386f26fc10000830492506010015b6305f5e100831061163e576305f5e100830492506008015b612710831061165257612710830492506004015b60648310611664576064830492506002015b600a831061034c5760010192915050565b6001600160e01b031981168114610bd057600080fd5b60006020828403121561169d57600080fd5b813561143b81611675565b80356001600160a01b03811681146116bf57600080fd5b919050565b60008083601f8401126116d657600080fd5b50813567ffffffffffffffff8111156116ee57600080fd5b60208301915083602082850101111561170657600080fd5b9250929050565b60008060008060008060006080888a03121561172857600080fd5b611731886116a8565b9650602088013567ffffffffffffffff8082111561174e57600080fd5b61175a8b838c016116c4565b909850965060408a013591508082111561177357600080fd5b61177f8b838c016116c4565b909650945060608a013591508082111561179857600080fd5b506117a58a828b016116c4565b989b979a50959850939692959293505050565b6000602082840312156117ca57600080fd5b5035919050565b60005b838110156117ec5781810151838201526020016117d4565b50506000910152565b6000815180845261180d8160208601602086016117d1565b601f01601f19169290920160200192915050565b60208152600061143b60208301846117f5565b6000806040838503121561184757600080fd5b611850836116a8565b946020939093013593505050565b60008060006060848603121561187357600080fd5b61187c846116a8565b925061188a602085016116a8565b9150604084013590509250925092565b602081526000825160a060208401526118b660c08401826117f5565b90506020840151601f198483030160408501526118d382826117f5565b91505060018060a01b036040850151166060840152606084015160808401526080840151151560a08401528091505092915050565b60a08152600061191b60a08301886117f5565b828103602084015261192d81886117f5565b6001600160a01b0396909616604084015250506060810192909252151560809091015292915050565b60006020828403121561196857600080fd5b61143b826116a8565b6000806040838503121561198457600080fd5b61198d836116a8565b9150602083013580151581146119a257600080fd5b809150509250929050565b634e487b7160e01b600052604160045260246000fd5b600080600080608085870312156119d957600080fd5b6119e2856116a8565b93506119f0602086016116a8565b925060408501359150606085013567ffffffffffffffff80821115611a1457600080fd5b818701915087601f830112611a2857600080fd5b813581811115611a3a57611a3a6119ad565b604051601f8201601f19908116603f01168101908382118183101715611a6257611a626119ad565b816040528281528a6020848701011115611a7b57600080fd5b82602086016020830137600060208483010152809550505050505092959194509250565b60008060408385031215611ab257600080fd5b611abb836116a8565b9150611ac9602084016116a8565b90509250929050565b600060018201611af257634e487b7160e01b600052601160045260246000fd5b5060010190565b600181811c90821680611b0d57607f821691505b602082108103611b2d57634e487b7160e01b600052602260045260246000fd5b50919050565b601f82111561079657600081815260208120601f850160051c81016020861015611b5a5750805b601f850160051c820191505b818110156110be57828155600101611b66565b815167ffffffffffffffff811115611b9357611b936119ad565b611ba781611ba18454611af9565b84611b33565b602080601f831160018114611bdc5760008415611bc45750858301515b600019600386901b1c1916600185901b1785556110be565b600085815260208120601f198616915b82811015611c0b57888601518255948401946001909101908401611bec565b5085821015611c295787850151600019600388901b60f8161c191681555b5050505050600190811b01905550565b81835281816020850137506000828201602090810191909152601f909101601f19169091010190565b604081526000611c76604083018688611c39565b828103602084015261059a818587611c39565b60208082526024908201527f43657274696669636174654e46543a20746f6b656e20646f6573206e6f7420656040820152631e1a5cdd60e21b606082015260800190565b6001600160a01b0385811682528416602082015260408101839052608060608201819052600090611d00908301846117f5565b9695505050505050565b600060208284031215611d1c57600080fd5b815161143b81611675565b60008351611d398184602088016117d1565b835190830190611d4d8183602088016117d1565b0194935050505056fea2646970667358221220a3903b16d6c13a1a8751003052faf64546f4412ca1cdd54fade68d69dda6c2cc64736f6c63430008140033",
  "linkReferences": {},
  "deployedLinkReferences": {}
}