{
  "_format": "hh-sol-artifact-1",
  "contractName": "TaskController",
  "sourceName": "contracts/TaskController.sol",
  "abi": [
    {
      "inputs": [
        {
          "internalType": "address",
          "name": "_eduToken",
          "type": "address"
        }
      ],
      "stateMutability": "nonpayable",
      "type": "constructor"
    },
    {
      "inputs": [],
      "name": "ECDSAInvalidSignature",
      "type": "error"
    },
    {
      "inputs": [
        {
          "internalType": "uint256",
          "name": "length",
          "type": "uint256"
        }
      ],
      "name": "ECDSAInvalidSignatureLength",
      "type": "error"
    },
    {
      "inputs": [
        {
          "internalType": "bytes32",
          "name": "s",
          "type": "bytes32"
        }
      ],
      "name": "ECDSAInvalidSignatureS",
      "type": "error"
    },
    {
      "inputs": [
        {
          "internalType": "address",
          "name": "owner",
          "type": "address"
        }
      ],
      "name": "OwnableInvalidOwner",
      "type": "error"
    },
    {
      "inputs": [
        {
          "internalType": "address",
          "name": "account",
          "type": "address"
        }
      ],
      "name": "OwnableUnauthorizedAccount",
      "type": "error"
    },
    {
      "inputs": [],
      "name": "ReentrancyGuardReentrantCall",
      "type": "error"
    },
    {
      "anonymous": false,
      "inputs": [
        {
          "indexed": true,
          "internalType": "address",
          "name": "previousOwner",
          "type": "address"
        },
        {
          "indexed": true,
          "internalType": "address",
          "name": "newOwner",
          "type": "address"
        }
      ],
      "name": "OwnershipTransferred",
      "type": "event"
    },
    {
      "anonymous": false,
      "inputs": [
        {
          "indexed": true,
          "internalType": "uint256",
          "name": "taskId",
          "type": "uint256"
        },
        {
          "indexed": false,
          "internalType": "string",
          "name": "title",
          "type": "string"
        },
        {
          "indexed": false,
          "internalType": "string",
          "name": "condition",
          "type": "string"
        },
        {
          "indexed": false,
          "internalType": "uint256",
          "name": "reward",
          "type": "uint256"
        },
        {
          "indexed": false,
          "internalType": "enum TaskController.VerificationType",
          "name": "verificationType",
          "type": "uint8"
        }
      ],
      "name": "TaskCreated",
      "type": "event"
    },
    {
      "anonymous": false,
      "inputs": [
        {
          "indexed": true,
          "internalType": "uint256",
          "name": "taskId",
          "type": "uint256"
        },
        {
          "indexed": false,
          "internalType": "bool",
          "name": "isActive",
          "type": "bool"
        }
      ],
      "name": "TaskUpdated",
      "type": "event"
    },
    {
      "anonymous": false,
      "inputs": [
        {
          "indexed": true,
          "internalType": "uint256",
          "name": "taskId",
          "type": "uint256"
        },
        {
          "indexed": true,
          "internalType": "address",
          "name": "student",
          "type": "address"
        },
        {
          "indexed": false,
          "internalType": "uint256",
          "name": "reward",
          "type": "uint256"
        }
      ],
      "name": "TaskVerified",
      "type": "event"
    },
    {
      "inputs": [
        {
          "internalType": "string",
          "name": "_title",
          "type": "string"
        },
        {
          "internalType": "string",
          "name": "_condition",
          "type": "string"
        },
        {
          "internalType": "uint256",
          "name": "_reward",
          "type": "uint256"
        },
        {
          "internalType": "enum TaskController.VerificationType",
          "name": "_verificationType",
          "type": "uint8"
        },
        {
          "internalType": "uint256",
          "name": "_minTokenBalance",
          "type": "uint256"
        }
      ],
      "name": "createTask",
      "outputs": [],
      "stateMutability": "nonpayable",
      "type": "function"
    },
    {
      "inputs": [],
      "name": "eduToken",
      "outputs": [
        {
          "internalType": "contract IERC20",
          "name": "",
          "type": "address"
        }
      ],
      "stateMutability": "view",
      "type": "function"
    },
    {
      "inputs": [
        {
          "internalType": "uint256",
          "name": "",
          "type": "uint256"
        },
        {
          "internalType": "address",
          "name": "",
          "type": "address"
        }
      ],
      "name": "hasCompletedTask",
      "outputs": [
        {
          "internalType": "bool",
          "name": "",
          "type": "bool"
        }
      ],
      "stateMutability": "view",
      "type": "function"
    },
    {
      "inputs": [
        {
          "internalType": "uint256",
          "name": "_taskId",
          "type": "uint256"
        },
        {
          "internalType": "address",
          "name": "_user",
          "type": "address"
        }
      ],
      "name": "isTaskCompleted",
      "outputs": [
        {
          "internalType": "bool",
          "name": "",
          "type": "bool"
        }
      ],
      "stateMutability": "view",
      "type": "function"
    },
    {
      "inputs": [],
      "name": "nextTaskId",
      "outputs": [
        {
          "internalType": "uint256",
          "name": "",
          "type": "uint256"
        }
      ],
      "stateMutability": "view",
      "type": "function"
    },
    {
      "inputs": [],
      "name": "owner",
      "outputs": [
        {
          "internalType": "address",
          "name": "",
          "type": "address"
        }
      ],
      "stateMutability": "view",
      "type": "function"
    },
    {
      "inputs": [],
      "name": "renounceOwnership",
      "outputs": [],
      "stateMutability": "nonpayable",
      "type": "function"
    },
    {
      "inputs": [
        {
          "internalType": "uint256",
          "name": "_taskId",
          "type": "uint256"
        },
        {
          "internalType": "bool",
          "name": "_isActive",
          "type": "bool"
        }
      ],
      "name": "setTaskStatus",
      "outputs": [],
      "stateMutability": "nonpayable",
      "type": "function"
    },
    {
      "inputs": [
        {
          "internalType": "uint256",
          "name": "",
          "type": "uint256"
        }
      ],
      "name": "tasks",
      "outputs": [
        {
          "internalType": "uint256",
          "name": "id",
          "type": "uint256"
        },
        {
          "internalType": "string",
          "name": "title",
          "type": "string"
        },
        {
          "internalType": "string",
          "name": "condition",
          "type": "string"
        },
        {
          "internalType": "uint256",
          "name": "reward",
          "type": "uint256"
        },
        {
          "internalType": "enum TaskController.VerificationType",
          "name": "verificationType",
          "type": "uint8"
        },
        {
          "internalType": "uint256",
          "name": "minTokenBalance",
          "type": "uint256"
        },
        {
          "internalType": "bool",
          "name": "isActive",
          "type": "bool"
        }
      ],
      "stateMutability": "view",
      "type": "function"
    },
    {
      "inputs": [
        {
          "internalType": "address",
          "name": "newOwner",
          "type": "address"
        }
      ],
      "name": "transferOwnership",
      "outputs": [],
      "stateMutability": "nonpayable",
      "type": "function"
    },
    {
      "inputs": [
        {
          "internalType": "uint256",
          "name": "_taskId",
          "type": "uint256"
        },
        {
          "internalType": "bytes",
          "name": "_signature",
          "type": "bytes"
        }
      ],
      "name": "verifyTask",
      "outputs": [],
      "stateMutability": "nonpayable",
      "type": "function"
    }
  ],
  "bytecode": "0x608060405234801561001057600080fd5b506040516200160c3803806200160c83398101604081905261003191610136565b338061005857604051631e4fbdf760e01b8152600060048201526024015b60405180910390fd5b610061816100e6565b50600180556001600160a01b0381166100bc5760405162461bcd60e51b815260206004820152601560248201527f496e76616c696420746f6b656e20616464726573730000000000000000000000604482015260640161004f565b600280546001600160a01b0319166001600160a01b03929092169190911790556001600455610166565b600080546001600160a01b038381166001600160a01b0319831681178455604051919092169283917f8be0079c531659141344cd1fd0a4f28419497f9722a3daafe3b4186f6b6457e09190a35050565b60006020828403121561014857600080fd5b81516001600160a01b038116811461015f57600080fd5b9392505050565b61149680620001766000396000f3fe608060405234801561001057600080fd5b50600436106100a95760003560e01c80638d878889116100715780638d8788891461015a5780638d977672146101855780638da5cb5b146101ab578063f2fde38b146101bc578063f3ff6031146101cf578063fdc3d8d7146101e257600080fd5b806336eb732c146100ae5780634cbcc61b146100f15780634eb34f291461010657806353cd7b8e1461013f578063715018a614610152575b600080fd5b6100dc6100bc366004610f86565b600560209081526000928352604080842090915290825290205460ff1681565b60405190151581526020015b60405180910390f35b6101046100ff366004610ffb565b6101f9565b005b6100dc610114366004610f86565b60009182526005602090815260408084206001600160a01b0393909316845291905290205460ff1690565b61010461014d366004611055565b6108ac565b610104610961565b60025461016d906001600160a01b031681565b6040516001600160a01b0390911681526020016100e8565b610198610193366004611085565b610975565b6040516100e8979695949392919061111c565b6000546001600160a01b031661016d565b6101046101ca366004611177565b610ac6565b6101046101dd366004611199565b610b04565b6101eb60045481565b6040519081526020016100e8565b610201610cc0565b6000600360008581526020019081526020016000206040518060e00160405290816000820154815260200160018201805461023b90611234565b80601f016020809104026020016040519081016040528092919081815260200182805461026790611234565b80156102b45780601f10610289576101008083540402835291602001916102b4565b820191906000526020600020905b81548152906001019060200180831161029757829003601f168201915b505050505081526020016002820180546102cd90611234565b80601f01602080910402602001604051908101604052809291908181526020018280546102f990611234565b80156103465780601f1061031b57610100808354040283529160200191610346565b820191906000526020600020905b81548152906001019060200180831161032957829003601f168201915b50505091835250506003828101546020830152600483015460409092019160ff1690811115610377576103776110e4565b6003811115610388576103886110e4565b81526005820154602082015260069091015460ff16151560409091015280519091506000036103f45760405162461bcd60e51b815260206004820152601360248201527215185cdac8191bd95cc81b9bdd08195e1a5cdd606a1b60448201526064015b60405180910390fd5b8060c0015161043a5760405162461bcd60e51b81526020600482015260126024820152715461736b206973206e6f742061637469766560701b60448201526064016103eb565b600084815260056020908152604080832033845290915290205460ff161561049d5760405162461bcd60e51b815260206004820152601660248201527515185cdac8185b1c9958591e4818dbdb5c1b195d195960521b60448201526064016103eb565b6000816080015160038111156104b5576104b56110e4565b14610735576001816080015160038111156104d2576104d26110e4565b0361059b5760a08101516002546040516370a0823160e01b81523360048201526001600160a01b03909116906370a0823190602401602060405180830381865afa158015610524573d6000803e3d6000fd5b505050506040513d601f19601f82011682018060405250810190610548919061126e565b10156105965760405162461bcd60e51b815260206004820152601a60248201527f496e73756666696369656e7420746f6b656e2062616c616e636500000000000060448201526064016103eb565b610735565b6002816080015160038111156105b3576105b36110e4565b036106ed57600084336040516020016105e892919091825260601b6bffffffffffffffffffffffff1916602082015260340190565b6040516020818303038152906040528051906020012090506000610639827f19457468657265756d205369676e6564204d6573736167653a0a3332000000006000908152601c91909152603c902090565b9050600061067d8287878080601f016020809104026020016040519081016040528093929190818152602001838380828437600092019190915250610cea92505050565b90506106916000546001600160a01b031690565b6001600160a01b0316816001600160a01b0316146106e55760405162461bcd60e51b8152602060048201526011602482015270496e76616c6964207369676e617475726560781b60448201526064016103eb565b505050610735565b60405162461bcd60e51b815260206004820152601d60248201527f556e737570706f7274656420766572696669636174696f6e207479706500000060448201526064016103eb565b60008481526005602090815260408083203384529091529020805460ff191660011790556002546001600160a01b03166323b872dd61077c6000546001600160a01b031690565b60608401516040516001600160e01b031960e085901b1681526001600160a01b03909216600483015233602483015260448201526064016020604051808303816000875af11580156107d2573d6000803e3d6000fd5b505050506040513d601f19601f820116820180604052508101906107f69190611287565b6108555760405162461bcd60e51b815260206004820152602a60248201527f5472616e73666572206661696c65642e2041646d696e2f436f6e747261637420604482015269616c6c6f77616e63653f60b01b60648201526084016103eb565b336001600160a01b0316847f477d9dbad436f899729571bd347ca39a0d163bbc0870482ce5e298e4145d4251836060015160405161089591815260200190565b60405180910390a3506108a760018055565b505050565b6108b4610d14565b60008281526003602052604081205490036109075760405162461bcd60e51b815260206004820152601360248201527215185cdac8191bd95cc81b9bdd08195e1a5cdd606a1b60448201526064016103eb565b600082815260036020908152604091829020600601805460ff1916841515908117909155915191825283917fe9a6e5d5a580583ad1afe0c3e63b878d3f9d468e5139460d08cf04b4166b260e910160405180910390a25050565b610969610d14565b6109736000610d41565b565b6003602052600090815260409020805460018201805491929161099790611234565b80601f01602080910402602001604051908101604052809291908181526020018280546109c390611234565b8015610a105780601f106109e557610100808354040283529160200191610a10565b820191906000526020600020905b8154815290600101906020018083116109f357829003601f168201915b505050505090806002018054610a2590611234565b80601f0160208091040260200160405190810160405280929190818152602001828054610a5190611234565b8015610a9e5780601f10610a7357610100808354040283529160200191610a9e565b820191906000526020600020905b815481529060010190602001808311610a8157829003601f168201915b505050506003830154600484015460058501546006909501549394919360ff91821693501687565b610ace610d14565b6001600160a01b038116610af857604051631e4fbdf760e01b8152600060048201526024016103eb565b610b0181610d41565b50565b610b0c610d14565b6040518060e00160405280600454815260200188888080601f016020809104026020016040519081016040528093929190818152602001838380828437600092019190915250505090825250604080516020601f89018190048102820181019092528781529181019190889088908190840183828082843760009201919091525050509082525060208101859052604001836003811115610baf57610baf6110e4565b81526020808201849052600160409283018190526004546000908152600383529290922083518155908301519091820190610bea9082611308565b5060408201516002820190610bff9082611308565b506060820151816003015560808201518160040160006101000a81548160ff02191690836003811115610c3457610c346110e4565b021790555060a0820151600582015560c0909101516006909101805460ff19169115159190911790556004546040517fd63078e9fde7c3bd0761e23f0589de9713387dcb57722ebcab4f2fd1e954a2d390610c9a908a908a908a908a908a908a906113f1565b60405180910390a260048054906000610cb283611439565b919050555050505050505050565b600260015403610ce357604051633ee5aeb560e01b815260040160405180910390fd5b6002600155565b600080600080610cfa8686610d91565b925092509250610d0a8282610dde565b5090949350505050565b6000546001600160a01b031633146109735760405163118cdaa760e01b81523360048201526024016103eb565b600080546001600160a01b038381166001600160a01b0319831681178455604051919092169283917f8be0079c531659141344cd1fd0a4f28419497f9722a3daafe3b4186f6b6457e09190a35050565b60008060008351604103610dcb5760208401516040850151606086015160001a610dbd88828585610e9b565b955095509550505050610dd7565b50508151600091506002905b9250925092565b6000826003811115610df257610df26110e4565b03610dfb575050565b6001826003811115610e0f57610e0f6110e4565b03610e2d5760405163f645eedf60e01b815260040160405180910390fd5b6002826003811115610e4157610e416110e4565b03610e625760405163fce698f760e01b8152600481018290526024016103eb565b6003826003811115610e7657610e766110e4565b03610e97576040516335e2f38360e21b8152600481018290526024016103eb565b5050565b600080807f7fffffffffffffffffffffffffffffff5d576e7357a4501ddfe92f46681b20a0841115610ed65750600091506003905082610f60565b604080516000808252602082018084528a905260ff891692820192909252606081018790526080810186905260019060a0016020604051602081039080840390855afa158015610f2a573d6000803e3d6000fd5b5050604051601f1901519150506001600160a01b038116610f5657506000925060019150829050610f60565b9250600091508190505b9450945094915050565b80356001600160a01b0381168114610f8157600080fd5b919050565b60008060408385031215610f9957600080fd5b82359150610fa960208401610f6a565b90509250929050565b60008083601f840112610fc457600080fd5b50813567ffffffffffffffff811115610fdc57600080fd5b602083019150836020828501011115610ff457600080fd5b9250929050565b60008060006040848603121561101057600080fd5b83359250602084013567ffffffffffffffff81111561102e57600080fd5b61103a86828701610fb2565b9497909650939450505050565b8015158114610b0157600080fd5b6000806040838503121561106857600080fd5b82359150602083013561107a81611047565b809150509250929050565b60006020828403121561109757600080fd5b5035919050565b6000815180845260005b818110156110c4576020818501810151868301820152016110a8565b506000602082860101526020601f19601f83011685010191505092915050565b634e487b7160e01b600052602160045260246000fd5b6004811061111857634e487b7160e01b600052602160045260246000fd5b9052565b87815260e06020820152600061113560e083018961109e565b8281036040840152611147818961109e565b91505085606083015261115d60808301866110fa565b8360a083015282151560c083015298975050505050505050565b60006020828403121561118957600080fd5b61119282610f6a565b9392505050565b600080600080600080600060a0888a0312156111b457600080fd5b873567ffffffffffffffff808211156111cc57600080fd5b6111d88b838c01610fb2565b909950975060208a01359150808211156111f157600080fd5b506111fe8a828b01610fb2565b9096509450506040880135925060608801356004811061121d57600080fd5b809250506080880135905092959891949750929550565b600181811c9082168061124857607f821691505b60208210810361126857634e487b7160e01b600052602260045260246000fd5b50919050565b60006020828403121561128057600080fd5b5051919050565b60006020828403121561129957600080fd5b815161119281611047565b634e487b7160e01b600052604160045260246000fd5b601f8211156108a757600081815260208120601f850160051c810160208610156112e15750805b601f850160051c820191505b81811015611300578281556001016112ed565b505050505050565b815167ffffffffffffffff811115611322576113226112a4565b611336816113308454611234565b846112ba565b602080601f83116001811461136b57600084156113535750858301515b600019600386901b1c1916600185901b178555611300565b600085815260208120601f198616915b8281101561139a5788860151825594840194600190910190840161137b565b50858210156113b85787850151600019600388901b60f8161c191681555b5050505050600190811b01905550565b81835281816020850137506000828201602090810191909152601f909101601f19169091010190565b60808152600061140560808301888a6113c8565b82810360208401526114188187896113c8565b91505083604083015261142e60608301846110fa565b979650505050505050565b60006001820161145957634e487b7160e01b600052601160045260246000fd5b506001019056fea26469706673582212208d6c789deef70f5227a86b03e55d192cf2d7efe4dad2b0a3c8f4bb5ebe926ed364736f6c63430008140033",
  "linkReferences": {},
  "deployedLinkReferences": {}
}